{"abi":[{"type":"constructor","inputs":[{"name":"name","type":"string","internalType":"string"},{"name":"symbol","type":"string","internalType":"string"}],"stateMutability":"nonpayable"},{"type":"function","name":"BURNER_ROLE","inputs":[],"outputs":[{"name":"","type":"bytes32","internalType":"bytes32"}],"stateMutability":"view"},{"type":"function","name":"DEFAULT_ADMIN_ROLE","inputs":[],"outputs":[{"name":"","type":"bytes32","internalType":"bytes32"}],"stateMutability":"view"},{"type":"function","name":"DOMAIN_SEPARATOR","inputs":[],"outputs":[{"name":"","type":"bytes32","internalType":"bytes32"}],"stateMutability":"view"},{"type":"function","name":"MINTER_ROLE","inputs":[],"outputs":[{"name":"","type":"bytes32","internalType":"bytes32"}],"stateMutability":"view"},{"type":"function","name":"allowance","inputs":[{"name":"owner","type":"address","internalType":"address"},{"name":"spender","type":"address","internalType":"address"}],"outputs":[{"name":"","type":"uint256","internalType":"uint256"}],"stateMutability":"view"},{"type":"function","name":"approve","inputs":[{"name":"spender","type":"address","internalType":"address"},{"name":"value","type":"uint256","internalType":"uint256"}],"outputs":[{"name":"","type":"bool","internalType":"bool"}],"stateMutability":"nonpayable"},{"type":"function","name":"balanceOf","inputs":[{"name":"account","type":"address","internalType":"address"}],"outputs":[{"name":"","type":"uint256","internalType":"uint256"}],"stateMutability":"view"},{"type":"function","name":"burn","inputs":[{"name":"from","type":"address","internalType":"address"},{"name":"amount","type":"uint256","internalType":"uint256"}],"outputs":[],"stateMutability":"nonpayable"},{"type":"function","name":"decimals","inputs":[],"outputs":[{"name":"","type":"uint8","internalType":"uint8"}],"stateMutability":"view"},{"type":"function","name":"eip712Domain","inputs":[],"outputs":[{"name":"fields","type":"bytes1","internalType":"bytes1"},{"name":"name","type":"string","internalType":"string"},{"name":"version","type":"string","internalType":"string"},{"name":"chainId","type":"uint256","internalType":"uint256"},{"name":"verifyingContract","type":"address","internalType":"address"},{"name":"salt","type":"bytes32","internalType":"bytes32"},{"name":"extensions","type":"uint256[]","internalType":"uint256[]"}],"stateMutability":"view"},{"type":"function","name":"getRoleAdmin","inputs":[{"name":"role","type":"bytes32","internalType":"bytes32"}],"outputs":[{"name":"","type":"bytes32","internalType":"bytes32"}],"stateMutability":"view"},{"type":"function","name":"grantRole","inputs":[{"name":"role","type":"bytes32","internalType":"bytes32"},{"name":"account","type":"address","internalType":"address"}],"outputs":[],"stateMutability":"nonpayable"},{"type":"function","name":"hasRole","inputs":[{"name":"role","type":"bytes32","internalType":"bytes32"},{"name":"account","type":"address","internalType":"address"}],"outputs":[{"name":"","type":"bool","internalType":"bool"}],"stateMutability":"view"},{"type":"function","name":"mint","inputs":[{"name":"to","type":"address","internalType":"address"},{"name":"amount","type":"uint256","internalType":"uint256"}],"outputs":[],"stateMutability":"nonpayable"},{"type":"function","name":"name","inputs":[],"outputs":[{"name":"","type":"string","internalType":"string"}],"stateMutability":"view"},{"type":"function","name":"nonces","inputs":[{"name":"owner","type":"address","internalType":"address"}],"outputs":[{"name":"","type":"uint256","internalType":"uint256"}],"stateMutability":"view"},{"type":"function","name":"permit","inputs":[{"name":"owner","type":"address","internalType":"address"},{"name":"spender","type":"address","internalType":"address"},{"name":"value","type":"uint256","internalType":"uint256"},{"name":"deadline","type":"uint256","internalType":"uint256"},{"name":"v","type":"uint8","internalType":"uint8"},{"name":"r","type":"bytes32","internalType":"bytes32"},{"name":"s","type":"bytes32","internalType":"bytes32"}],"outputs":[],"stateMutability":"nonpayable"},{"type":"function","name":"renounceRole","inputs":[{"name":"role","type":"bytes32","internalType":"bytes32"},{"name":"callerConfirmation","type":"address","internalType":"address"}],"outputs":[],"stateMutability":"nonpayable"},{"type":"function","name":"revokeRole","inputs":[{"name":"role","type":"bytes32","internalType":"bytes32"},{"name":"account","type":"address","internalType":"address"}],"outputs":[],"stateMutability":"nonpayable"},{"type":"function","name":"supportsInterface","inputs":[{"name":"interfaceId","type":"bytes4","internalType":"bytes4"}],"outputs":[{"name":"","type":"bool","internalType":"bool"}],"stateMutability":"view"},{"type":"function","name":"symbol","inputs":[],"outputs":[{"name":"","type":"string","internalType":"string"}],"stateMutability":"view"},{"type":"function","name":"totalSupply","inputs":[],"outputs":[{"name":"","type":"uint256","internalType":"uint256"}],"stateMutability":"view"},{"type":"function","name":"transfer","inputs":[{"name":"to","type":"address","internalType":"address"},{"name":"value","type":"uint256","internalType":"uint256"}],"outputs":[{"name":"","type":"bool","internalType":"bool"}],"stateMutability":"nonpayable"},{"type":"function","name":"transferFrom","inputs":[{"name":"from","type":"address","internalType":"address"},{"name":"to","type":"address","internalType":"address"},{"name":"value","type":"uint256","internalType":"uint256"}],"outputs":[{"name":"","type":"bool","internalType":"bool"}],"stateMutability":"nonpayable"},{"type":"event","name":"Approval","inputs":[{"name":"owner","type":"address","indexed":true,"internalType":"address"},{"name":"spender","type":"address","indexed":true,"internalType":"address"},{"name":"value","type":"uint256","indexed":false,"internalType":"uint256"}],"anonymous":false},{"type":"event","name":"EIP712DomainChanged","inputs":[],"anonymous":false},{"type":"event","name":"RoleAdminChanged","inputs":[{"name":"role","type":"bytes32","indexed":true,"internalType":"bytes32"},{"name":"previousAdminRole","type":"bytes32","indexed":true,"internalType":"bytes32"},{"name":"newAdminRole","type":"bytes32","indexed":true,"internalType":"bytes32"}],"anonymous":false},{"type":"event","name":"RoleGranted","inputs":[{"name":"role","type":"bytes32","indexed":true,"internalType":"bytes32"},{"name":"account","type":"address","indexed":true,"internalType":"address"},{"name":"sender","type":"address","indexed":true,"internalType":"address"}],"anonymous":false},{"type":"event","name":"RoleRevoked","inputs":[{"name":"role","type":"bytes32","indexed":true,"internalType":"bytes32"},{"name":"account","type":"address","indexed":true,"internalType":"address"},{"name":"sender","type":"address","indexed":true,"internalType":"address"}],"anonymous":false},{"type":"event","name":"Transfer","inputs":[{"name":"from","type":"address","indexed":true,"internalType":"address"},{"name":"to","type":"address","indexed":true,"internalType":"address"},{"name":"value","type":"uint256","indexed":false,"internalType":"uint256"}],"anonymous":false},{"type":"error","name":"AccessControlBadConfirmation","inputs":[]},{"type":"error","name":"AccessControlUnauthorizedAccount","inputs":[{"name":"account","type":"address","internalType":"address"},{"name":"neededRole","type":"bytes32","internalType":"bytes32"}]},{"type":"error","name":"ECDSAInvalidSignature","inputs":[]},{"type":"error","name":"ECDSAInvalidSignatureLength","inputs":[{"name":"length","type":"uint256","internalType":"uint256"}]},{"type":"error","name":"ECDSAInvalidSignatureS","inputs":[{"name":"s","type":"bytes32","internalType":"bytes32"}]},{"type":"error","name":"ERC20InsufficientAllowance","inputs":[{"name":"spender","type":"address","internalType":"address"},{"name":"allowance","type":"uint256","internalType":"uint256"},{"name":"needed","type":"uint256","internalType":"uint256"}]},{"type":"error","name":"ERC20InsufficientBalance","inputs":[{"name":"sender","type":"address","internalType":"address"},{"name":"balance","type":"uint256","internalType":"uint256"},{"name":"needed","type":"uint256","internalType":"uint256"}]},{"type":"error","name":"ERC20InvalidApprover","inputs":[{"name":"approver","type":"address","internalType":"address"}]},{"type":"error","name":"ERC20InvalidReceiver","inputs":[{"name":"receiver","type":"address","internalType":"address"}]},{"type":"error","name":"ERC20InvalidSender","inputs":[{"name":"sender","type":"address","internalType":"address"}]},{"type":"error","name":"ERC20InvalidSpender","inputs":[{"name":"spender","type":"address","internalType":"address"}]},{"type":"error","name":"ERC2612ExpiredSignature","inputs":[{"name":"deadline","type":"uint256","internalType":"uint256"}]},{"type":"error","name":"ERC2612InvalidSigner","inputs":[{"name":"signer","type":"address","internalType":"address"},{"name":"owner","type":"address","internalType":"address"}]},{"type":"error","name":"InvalidAccountNonce","inputs":[{"name":"account","type":"address","internalType":"address"},{"name":"currentNonce","type":"uint256","internalType":"uint256"}]},{"type":"error","name":"InvalidShortString","inputs":[]},{"type":"error","name":"StringTooLong","inputs":[{"name":"str","type":"string","internalType":"string"}]}],"bytecode":{"object":"0x610160806040523461043057611b7c803803809161001d8285610434565b83398101906040818303126104305780516001600160401b0381116104305782610048918301610457565b60208201519092906001600160401b038111610430576100689201610457565b906040918251916100798484610434565b60018352603160f81b6020840190815281519092906001600160401b03811161034057600354600181811c91168015610426575b602082101461032257601f81116103c3575b50806020601f821160011461035f575f91610354575b508160011b915f199060031b1c1916176003555b8051906001600160401b0382116103405760045490600182811c92168015610336575b60208310146103225781601f8493116102b4575b50602090601f831160011461024e575f92610243575b50508160011b915f199060031b1c1916176004555b61015481610648565b61012052610161836107cf565b6101405260208151910120918260e05251902080610100524660a05282519060208201927f8b73c3c69bb8fe3d512ecc4cf759cc79239f7b179b0ffacaa9a75d522b39400f84528483015260608201524660808201523060a082015260a081526101cc60c082610434565b5190206080523060c0526101df336104ac565b506101e933610522565b506101f3336105b5565b50516111f49081610908823960805181610e59015260a05181610f16015260c05181610e23015260e05181610ea801526101005181610ece015261012051816105e50152610140518161060e0152f35b015190505f80610136565b60045f9081528281209350601f198516905b81811061029c5750908460019594939210610284575b505050811b0160045561014b565b01515f1960f88460031b161c191690555f8080610276565b92936020600181928786015181550195019301610260565b60045f529091507f8a35acfbc15ff81a39ae7d344fd709f28e8600b4aa8c65c6b64bfe7fe36bd19b601f840160051c81019160208510610318575b90601f859493920160051c01905b81811061030a5750610120565b5f81558493506001016102fd565b90915081906102ef565b634e487b7160e01b5f52602260045260245ffd5b91607f169161010c565b634e487b7160e01b5f52604160045260245ffd5b90508301515f6100d5565b60035f9081528181209250601f198416905b8181106103ab57509083600194939210610393575b5050811b016003556100e9565b8501515f1960f88460031b161c191690555f80610386565b9192602060018192868a015181550194019201610371565b60035f527fc2575a0e9e593c00f959f8c92f12db2869c3395a3b0502d05e2516446f71f85b601f830160051c8101916020841061041c575b601f0160051c01905b81811061041157506100bf565b5f8155600101610404565b90915081906103fb565b90607f16906100ad565b5f80fd5b601f909101601f19168101906001600160401b0382119082101761034057604052565b81601f82011215610430578051906001600160401b038211610340576040519261048b601f8401601f191660200185610434565b8284526020838301011161043057815f9260208093018386015e8301015290565b6001600160a01b0381165f9081525f516020611b3c5f395f51905f52602052604090205460ff1661051d576001600160a01b03165f8181525f516020611b3c5f395f51905f5260205260408120805460ff191660011790553391905f516020611afc5f395f51905f528180a4600190565b505f90565b6001600160a01b0381165f9081525f516020611b1c5f395f51905f52602052604090205460ff1661051d576001600160a01b03165f8181525f516020611b1c5f395f51905f5260205260408120805460ff191660011790553391907f9f2df0fed2c77648de5860a4cc508cd0818c85b8b8a1ab4ceeef8d981c8956a6905f516020611afc5f395f51905f529080a4600190565b6001600160a01b0381165f9081525f516020611b5c5f395f51905f52602052604090205460ff1661051d576001600160a01b03165f8181525f516020611b5c5f395f51905f5260205260408120805460ff191660011790553391907f3c11d16cbaffd01df69ce1c404f6340ee057498f5f00246190ea54220576a848905f516020611afc5f395f51905f529080a4600190565b908151602081105f146106c2575090601f815111610682576020815191015160208210610673571790565b5f198260200360031b1b161790565b604460209160405192839163305a27a960e01b83528160048401528051918291826024860152018484015e5f828201840152601f01601f19168101030190fd5b6001600160401b03811161034057600554600181811c911680156107c5575b602082101461032257601f8111610792575b50602092601f821160011461073157928192935f92610726575b50508160011b915f199060031b1c19161760055560ff90565b015190505f8061070d565b601f1982169360055f52805f20915f5b86811061077a5750836001959610610762575b505050811b0160055560ff90565b01515f1960f88460031b161c191690555f8080610754565b91926020600181928685015181550194019201610741565b60055f52601f60205f20910160051c810190601f830160051c015b8181106107ba57506106f3565b5f81556001016107ad565b90607f16906106e1565b908151602081105f146107fa575090601f815111610682576020815191015160208210610673571790565b6001600160401b03811161034057600654600181811c911680156108fd575b602082101461032257601f81116108ca575b50602092601f821160011461086957928192935f9261085e575b50508160011b915f199060031b1c19161760065560ff90565b015190505f80610845565b601f1982169360065f52805f20915f5b8681106108b2575083600195961061089a575b505050811b0160065560ff90565b01515f1960f88460031b161c191690555f808061088c565b91926020600181928685015181550194019201610879565b60065f52601f60205f20910160051c810190601f830160051c015b8181106108f2575061082b565b5f81556001016108e5565b90607f169061081956fe6080806040526004361015610012575f80fd5b5f3560e01c90816301ffc9a714610b315750806306fdde0314610a8c578063095ea7b314610a6657806318160ddd14610a4957806323b872dd1461096a578063248a9ca31461093f578063282c51f3146109055780632f2ff15d146108c7578063313ce567146108ac5780633644e5151461088a57806336568abe1461084657806340c10f191461073457806370a08231146106fd5780637ecebe00146106c557806384b0196e146105cd57806391d148541461058457806395d89b41146104a25780639dc29fac14610385578063a217fddf1461036b578063a9059cbb1461033a578063d505accf146101f7578063d5391393146101bd578063d547741f146101785763dd62ed3e14610124575f80fd5b346101745760403660031901126101745761013d610ba8565b610145610bbe565b6001600160a01b039182165f908152600160209081526040808320949093168252928352819020549051908152f35b5f80fd5b34610174576040366003190112610174576101bb600435610197610bbe565b906101b66101b1825f526008602052600160405f20015490565b610d5a565b610f3c565b005b34610174575f3660031901126101745760206040517f9f2df0fed2c77648de5860a4cc508cd0818c85b8b8a1ab4ceeef8d981c8956a68152f35b346101745760e036600319011261017457610210610ba8565b610218610bbe565b604435906064359260843560ff8116810361017457844211610327576102ec6102f59160018060a01b03841696875f52600760205260405f20908154916001830190556040519060208201927f6e71edae12b1b97f4d1f60370fef10105fa2faae0126114a169c64845d6126c984528a604084015260018060a01b038916606084015289608084015260a083015260c082015260c081526102ba60e082610c8d565b5190206102c5610e20565b906040519161190160f01b83526002830152602282015260c43591604260a43592206110bd565b9092919261114a565b6001600160a01b031684810361031057506101bb9350610fc0565b84906325c0072360e11b5f5260045260245260445ffd5b8463313c898160e11b5f5260045260245ffd5b3461017457604036600319011261017457610360610356610ba8565b6024359033610cc3565b602060405160018152f35b34610174575f3660031901126101745760206040515f8152f35b346101745760403660031901126101745761039e610ba8565b335f9081527fb75e3b8aba7d7d1102f90f87dc3f8c4ab976b6ccd21b261faad958be9048fb286020526040902054602435919060ff161561046b576001600160a01b0316801561045857805f525f60205260405f205482811061043f576020835f947fddf252ad1be2c89b69c2b068fc378daa952ba7f163c4a11628f55a4df523b3ef938587528684520360408620558060025403600255604051908152a3005b9063391434e360e21b5f5260045260245260445260645ffd5b634b637e8f60e11b5f525f60045260245ffd5b63e2517d3f60e01b5f52336004527f3c11d16cbaffd01df69ce1c404f6340ee057498f5f00246190ea54220576a84860245260445ffd5b34610174575f366003190112610174576040515f6004546104c281610bd4565b80845290600181169081156105605750600114610502575b6104fe836104ea81850382610c8d565b604051918291602083526020830190610b84565b0390f35b60045f9081527f8a35acfbc15ff81a39ae7d344fd709f28e8600b4aa8c65c6b64bfe7fe36bd19b939250905b808210610546575090915081016020016104ea6104da565b91926001816020925483858801015201910190929161052e565b60ff191660208086019190915291151560051b840190910191506104ea90506104da565b346101745760403660031901126101745761059d610bbe565b6004355f52600860205260405f209060018060a01b03165f52602052602060ff60405f2054166040519015158152f35b34610174575f366003190112610174576106696106097f0000000000000000000000000000000000000000000000000000000000000000611023565b6106327f0000000000000000000000000000000000000000000000000000000000000000611086565b6020610677604051926106458385610c8d565b5f84525f368137604051958695600f60f81b875260e08588015260e0870190610b84565b908582036040870152610b84565b4660608501523060808501525f60a085015283810360c08501528180845192838152019301915f5b8281106106ae57505050500390f35b83518552869550938101939281019260010161069f565b34610174576020366003190112610174576001600160a01b036106e6610ba8565b165f526007602052602060405f2054604051908152f35b34610174576020366003190112610174576001600160a01b0361071e610ba8565b165f525f602052602060405f2054604051908152f35b346101745760403660031901126101745761074d610ba8565b335f9081527f51a495916474fe1a0c0fcfb65a8a97682b84a054118858cdd1f5dfd7fc0919eb6020526040902054602435919060ff161561080f576001600160a01b03169081156107fc57600254908082018092116107e85760207fddf252ad1be2c89b69c2b068fc378daa952ba7f163c4a11628f55a4df523b3ef915f9360025584845283825260408420818154019055604051908152a3005b634e487b7160e01b5f52601160045260245ffd5b63ec442f0560e01b5f525f60045260245ffd5b63e2517d3f60e01b5f52336004527f9f2df0fed2c77648de5860a4cc508cd0818c85b8b8a1ab4ceeef8d981c8956a660245260445ffd5b346101745760403660031901126101745761085f610bbe565b336001600160a01b0382160361087b576101bb90600435610f3c565b63334bd91960e11b5f5260045ffd5b34610174575f3660031901126101745760206108a4610e20565b604051908152f35b34610174575f36600319011261017457602060405160128152f35b34610174576040366003190112610174576101bb6004356108e6610bbe565b906109006101b1825f526008602052600160405f20015490565b610d94565b34610174575f3660031901126101745760206040517f3c11d16cbaffd01df69ce1c404f6340ee057498f5f00246190ea54220576a8488152f35b346101745760203660031901126101745760206108a46004355f526008602052600160405f20015490565b3461017457606036600319011261017457610983610ba8565b61098b610bbe565b6001600160a01b0382165f818152600160209081526040808320338452909152902054909260443592915f1981106109c9575b506103609350610cc3565b838110610a2e578415610a1b573315610a0857610360945f52600160205260405f2060018060a01b0333165f526020528360405f2091039055846109be565b634a1406b160e11b5f525f60045260245ffd5b63e602df0560e01b5f525f60045260245ffd5b8390637dc7a0d960e11b5f523360045260245260445260645ffd5b34610174575f366003190112610174576020600254604051908152f35b3461017457604036600319011261017457610360610a82610ba8565b6024359033610fc0565b34610174575f366003190112610174576040515f600354610aac81610bd4565b80845290600181169081156105605750600114610ad3576104fe836104ea81850382610c8d565b60035f9081527fc2575a0e9e593c00f959f8c92f12db2869c3395a3b0502d05e2516446f71f85b939250905b808210610b17575090915081016020016104ea6104da565b919260018160209254838588010152019101909291610aff565b34610174576020366003190112610174576004359063ffffffff60e01b821680920361017457602091637965db0b60e01b8114908115610b73575b5015158152f35b6301ffc9a760e01b14905083610b6c565b805180835260209291819084018484015e5f828201840152601f01601f1916010190565b600435906001600160a01b038216820361017457565b602435906001600160a01b038216820361017457565b90600182811c92168015610c02575b6020831014610bee57565b634e487b7160e01b5f52602260045260245ffd5b91607f1691610be3565b5f9291815491610c1b83610bd4565b8083529260018116908115610c705750600114610c3757505050565b5f9081526020812093945091925b838310610c56575060209250010190565b600181602092949394548385870101520191019190610c45565b915050602093945060ff929192191683830152151560051b010190565b90601f8019910116810190811067ffffffffffffffff821117610caf57604052565b634e487b7160e01b5f52604160045260245ffd5b6001600160a01b0316908115610458576001600160a01b03169182156107fc57815f525f60205260405f2054818110610d4157817fddf252ad1be2c89b69c2b068fc378daa952ba7f163c4a11628f55a4df523b3ef92602092855f525f84520360405f2055845f525f825260405f20818154019055604051908152a3565b8263391434e360e21b5f5260045260245260445260645ffd5b5f81815260086020908152604080832033845290915290205460ff1615610d7e5750565b63e2517d3f60e01b5f523360045260245260445ffd5b5f8181526008602090815260408083206001600160a01b038616845290915290205460ff16610e1a575f8181526008602090815260408083206001600160a01b0395909516808452949091528120805460ff19166001179055339291907f2f8788117e7eff1d82e926ec794901d17c78024a50270940304540a733656f0d9080a4600190565b50505f90565b307f00000000000000000000000000000000000000000000000000000000000000006001600160a01b03161480610f13575b15610e7b577f000000000000000000000000000000000000000000000000000000000000000090565b60405160208101907f8b73c3c69bb8fe3d512ecc4cf759cc79239f7b179b0ffacaa9a75d522b39400f82527f000000000000000000000000000000000000000000000000000000000000000060408201527f000000000000000000000000000000000000000000000000000000000000000060608201524660808201523060a082015260a08152610f0d60c082610c8d565b51902090565b507f00000000000000000000000000000000000000000000000000000000000000004614610e52565b5f8181526008602090815260408083206001600160a01b038616845290915290205460ff1615610e1a575f8181526008602090815260408083206001600160a01b0395909516808452949091528120805460ff19169055339291907ff6391f5c32d9c69d2a47ea670b442974b53935d1edc7fd64eb21e047a839171b9080a4600190565b6001600160a01b0316908115610a1b576001600160a01b0316918215610a085760207f8c5be1e5ebec7d5bd14f71427d1e84f3dd0314c0f7b2291e5b200ac8c7c3b92591835f526001825260405f20855f5282528060405f2055604051908152a3565b60ff81146110695760ff811690601f821161105a5760405191611047604084610c8d565b6020808452838101919036833783525290565b632cd44ac360e21b5f5260045ffd5b506040516110838161107c816005610c0c565b0382610c8d565b90565b60ff81146110aa5760ff811690601f821161105a5760405191611047604084610c8d565b506040516110838161107c816006610c0c565b91907f7fffffffffffffffffffffffffffffff5d576e7357a4501ddfe92f46681b20a0841161113f579160209360809260ff5f9560405194855216868401526040830152606082015282805260015afa15611134575f516001600160a01b0381161561112a57905f905f90565b505f906001905f90565b6040513d5f823e3d90fd5b5050505f9160039190565b60048110156111aa578061115c575050565b600181036111735763f645eedf60e01b5f5260045ffd5b6002810361118e575063fce698f760e01b5f5260045260245ffd5b6003146111985750565b6335e2f38360e21b5f5260045260245ffd5b634e487b7160e01b5f52602160045260245ffdfea2646970667358221220a84892ff2e243d5f445dd0a196d31a3a0579c303c4ce492c6f0da146091ce97864736f6c634300081c00332f8788117e7eff1d82e926ec794901d17c78024a50270940304540a733656f0d51a495916474fe1a0c0fcfb65a8a97682b84a054118858cdd1f5dfd7fc0919eb5eff886ea0ce6ca488a3d6e336d6c0f75f46d19b42c06ce5ee98e42c96d256c7b75e3b8aba7d7d1102f90f87dc3f8c4ab976b6ccd21b261faad958be9048fb28","linkReferences":{}},"methodIdentifiers":{"BURNER_ROLE()":"282c51f3","DEFAULT_ADMIN_ROLE()":"a217fddf","DOMAIN_SEPARATOR()":"3644e515","MINTER_ROLE()":"d5391393","allowance(address,address)":"dd62ed3e","approve(address,uint256)":"095ea7b3","balanceOf(address)":"70a08231","burn(address,uint256)":"9dc29fac","decimals()":"313ce567","eip712Domain()":"84b0196e","getRoleAdmin(bytes32)":"248a9ca3","grantRole(bytes32,address)":"2f2ff15d","hasRole(bytes32,address)":"91d14854","mint(address,uint256)":"40c10f19","name()":"06fdde03","nonces(address)":"7ecebe00","permit(address,address,uint256,uint256,uint8,bytes32,bytes32)":"d505accf","renounceRole(bytes32,address)":"36568abe","revokeRole(bytes32,address)":"d547741f","supportsInterface(bytes4)":"01ffc9a7","symbol()":"95d89b41","totalSupply()":"18160ddd","transfer(address,uint256)":"a9059cbb","transferFrom(address,address,uint256)":"23b872dd"},"id":47}