{"abi":[{"type":"constructor","inputs":[{"name":"_primeAdmin","type":"address","internalType":"address"},{"name":"_domainRegistry","type":"address","internalType":"contract IDomainRegistry"},{"name":"_computeRegistry","type":"address","internalType":"contract IComputeRegistry"},{"name":"_AIToken","type":"address","internalType":"contract IERC20"}],"stateMutability":"nonpayable"},{"type":"function","name":"AIToken","inputs":[],"outputs":[{"name":"","type":"address","internalType":"contract IERC20"}],"stateMutability":"view"},{"type":"function","name":"DEFAULT_ADMIN_ROLE","inputs":[],"outputs":[{"name":"","type":"bytes32","internalType":"bytes32"}],"stateMutability":"view"},{"type":"function","name":"PRIME_ROLE","inputs":[],"outputs":[{"name":"","type":"bytes32","internalType":"bytes32"}],"stateMutability":"view"},{"type":"function","name":"blacklistNode","inputs":[{"name":"poolId","type":"uint256","internalType":"uint256"},{"name":"provider","type":"address","internalType":"address"},{"name":"nodekey","type":"address","internalType":"address"}],"outputs":[],"stateMutability":"nonpayable"},{"type":"function","name":"blacklistProvider","inputs":[{"name":"poolId","type":"uint256","internalType":"uint256"},{"name":"provider","type":"address","internalType":"address"}],"outputs":[],"stateMutability":"nonpayable"},{"type":"function","name":"changeComputePool","inputs":[{"name":"fromPoolId","type":"uint256","internalType":"uint256"},{"name":"toPoolId","type":"uint256","internalType":"uint256"},{"name":"nodekeys","type":"address[]","internalType":"address[]"},{"name":"signatures","type":"bytes[]","internalType":"bytes[]"}],"outputs":[],"stateMutability":"nonpayable"},{"type":"function","name":"computeRegistry","inputs":[],"outputs":[{"name":"","type":"address","internalType":"contract IComputeRegistry"}],"stateMutability":"view"},{"type":"function","name":"createComputePool","inputs":[{"name":"domainId","type":"uint256","internalType":"uint256"},{"name":"computeManagerKey","type":"address","internalType":"address"},{"name":"poolName","type":"string","internalType":"string"},{"name":"poolDataURI","type":"string","internalType":"string"}],"outputs":[{"name":"","type":"uint256","internalType":"uint256"}],"stateMutability":"nonpayable"},{"type":"function","name":"domainRegistry","inputs":[],"outputs":[{"name":"","type":"address","internalType":"contract IDomainRegistry"}],"stateMutability":"view"},{"type":"function","name":"endComputePool","inputs":[{"name":"poolId","type":"uint256","internalType":"uint256"}],"outputs":[],"stateMutability":"nonpayable"},{"type":"function","name":"getComputePool","inputs":[{"name":"poolId","type":"uint256","internalType":"uint256"}],"outputs":[{"name":"","type":"tuple","internalType":"struct IComputePool.PoolInfo","components":[{"name":"poolId","type":"uint256","internalType":"uint256"},{"name":"domainId","type":"uint256","internalType":"uint256"},{"name":"poolName","type":"string","internalType":"string"},{"name":"creator","type":"address","internalType":"address"},{"name":"computeManagerKey","type":"address","internalType":"address"},{"name":"creationTime","type":"uint256","internalType":"uint256"},{"name":"startTime","type":"uint256","internalType":"uint256"},{"name":"endTime","type":"uint256","internalType":"uint256"},{"name":"poolDataURI","type":"string","internalType":"string"},{"name":"poolValidationLogic","type":"address","internalType":"address"},{"name":"totalCompute","type":"uint256","internalType":"uint256"},{"name":"status","type":"uint8","internalType":"enum IComputePool.PoolStatus"}]}],"stateMutability":"view"},{"type":"function","name":"getComputePoolNodes","inputs":[{"name":"poolId","type":"uint256","internalType":"uint256"}],"outputs":[{"name":"","type":"address[]","internalType":"address[]"}],"stateMutability":"view"},{"type":"function","name":"getComputePoolProviders","inputs":[{"name":"poolId","type":"uint256","internalType":"uint256"}],"outputs":[{"name":"","type":"address[]","internalType":"address[]"}],"stateMutability":"view"},{"type":"function","name":"getNodeWork","inputs":[{"name":"poolId","type":"uint256","internalType":"uint256"},{"name":"nodekey","type":"address","internalType":"address"}],"outputs":[{"name":"","type":"tuple[]","internalType":"struct IComputePool.WorkInterval[]","components":[{"name":"joinTime","type":"uint256","internalType":"uint256"},{"name":"leaveTime","type":"uint256","internalType":"uint256"}]}],"stateMutability":"view"},{"type":"function","name":"getProviderActiveNodesInPool","inputs":[{"name":"poolId","type":"uint256","internalType":"uint256"},{"name":"provider","type":"address","internalType":"address"}],"outputs":[{"name":"","type":"uint256","internalType":"uint256"}],"stateMutability":"view"},{"type":"function","name":"getRoleAdmin","inputs":[{"name":"role","type":"bytes32","internalType":"bytes32"}],"outputs":[{"name":"","type":"bytes32","internalType":"bytes32"}],"stateMutability":"view"},{"type":"function","name":"grantRole","inputs":[{"name":"role","type":"bytes32","internalType":"bytes32"},{"name":"account","type":"address","internalType":"address"}],"outputs":[],"stateMutability":"nonpayable"},{"type":"function","name":"hasRole","inputs":[{"name":"role","type":"bytes32","internalType":"bytes32"},{"name":"account","type":"address","internalType":"address"}],"outputs":[{"name":"","type":"bool","internalType":"bool"}],"stateMutability":"view"},{"type":"function","name":"joinComputePool","inputs":[{"name":"poolId","type":"uint256","internalType":"uint256"},{"name":"provider","type":"address","internalType":"address"},{"name":"nodekey","type":"address[]","internalType":"address[]"},{"name":"signatures","type":"bytes[]","internalType":"bytes[]"}],"outputs":[],"stateMutability":"nonpayable"},{"type":"function","name":"leaveComputePool","inputs":[{"name":"poolId","type":"uint256","internalType":"uint256"},{"name":"provider","type":"address","internalType":"address"},{"name":"nodekey","type":"address","internalType":"address"}],"outputs":[],"stateMutability":"nonpayable"},{"type":"function","name":"nodeWork","inputs":[{"name":"","type":"uint256","internalType":"uint256"},{"name":"","type":"address","internalType":"address"},{"name":"","type":"uint256","internalType":"uint256"}],"outputs":[{"name":"joinTime","type":"uint256","internalType":"uint256"},{"name":"leaveTime","type":"uint256","internalType":"uint256"}],"stateMutability":"view"},{"type":"function","name":"poolIdCounter","inputs":[],"outputs":[{"name":"","type":"uint256","internalType":"uint256"}],"stateMutability":"view"},{"type":"function","name":"pools","inputs":[{"name":"","type":"uint256","internalType":"uint256"}],"outputs":[{"name":"poolId","type":"uint256","internalType":"uint256"},{"name":"domainId","type":"uint256","internalType":"uint256"},{"name":"poolName","type":"string","internalType":"string"},{"name":"creator","type":"address","internalType":"address"},{"name":"computeManagerKey","type":"address","internalType":"address"},{"name":"creationTime","type":"uint256","internalType":"uint256"},{"name":"startTime","type":"uint256","internalType":"uint256"},{"name":"endTime","type":"uint256","internalType":"uint256"},{"name":"poolDataURI","type":"string","internalType":"string"},{"name":"poolValidationLogic","type":"address","internalType":"address"},{"name":"totalCompute","type":"uint256","internalType":"uint256"},{"name":"status","type":"uint8","internalType":"enum IComputePool.PoolStatus"}],"stateMutability":"view"},{"type":"function","name":"providerActiveNodes","inputs":[{"name":"","type":"uint256","internalType":"uint256"},{"name":"","type":"address","internalType":"address"}],"outputs":[{"name":"","type":"uint256","internalType":"uint256"}],"stateMutability":"view"},{"type":"function","name":"renounceRole","inputs":[{"name":"role","type":"bytes32","internalType":"bytes32"},{"name":"callerConfirmation","type":"address","internalType":"address"}],"outputs":[],"stateMutability":"nonpayable"},{"type":"function","name":"revokeRole","inputs":[{"name":"role","type":"bytes32","internalType":"bytes32"},{"name":"account","type":"address","internalType":"address"}],"outputs":[],"stateMutability":"nonpayable"},{"type":"function","name":"rewardsDistributor","inputs":[],"outputs":[{"name":"","type":"address","internalType":"contract RewardsDistributor"}],"stateMutability":"view"},{"type":"function","name":"startComputePool","inputs":[{"name":"poolId","type":"uint256","internalType":"uint256"}],"outputs":[],"stateMutability":"nonpayable"},{"type":"function","name":"supportsInterface","inputs":[{"name":"interfaceId","type":"bytes4","internalType":"bytes4"}],"outputs":[{"name":"","type":"bool","internalType":"bool"}],"stateMutability":"view"},{"type":"function","name":"updateComputePoolURI","inputs":[{"name":"poolId","type":"uint256","internalType":"uint256"},{"name":"poolDataURI","type":"string","internalType":"string"}],"outputs":[],"stateMutability":"nonpayable"},{"type":"event","name":"ComputePoolCreated","inputs":[{"name":"poolId","type":"uint256","indexed":true,"internalType":"uint256"},{"name":"domainId","type":"uint256","indexed":true,"internalType":"uint256"},{"name":"creator","type":"address","indexed":true,"internalType":"address"}],"anonymous":false},{"type":"event","name":"ComputePoolEnded","inputs":[{"name":"poolId","type":"uint256","indexed":true,"internalType":"uint256"}],"anonymous":false},{"type":"event","name":"ComputePoolJoined","inputs":[{"name":"poolId","type":"uint256","indexed":true,"internalType":"uint256"},{"name":"provider","type":"address","indexed":true,"internalType":"address"},{"name":"nodekeys","type":"address[]","indexed":false,"internalType":"address[]"}],"anonymous":false},{"type":"event","name":"ComputePoolLeft","inputs":[{"name":"poolId","type":"uint256","indexed":true,"internalType":"uint256"},{"name":"provider","type":"address","indexed":true,"internalType":"address"},{"name":"nodekey","type":"address","indexed":false,"internalType":"address"}],"anonymous":false},{"type":"event","name":"ComputePoolNodeBlacklisted","inputs":[{"name":"poolId","type":"uint256","indexed":true,"internalType":"uint256"},{"name":"provider","type":"address","indexed":true,"internalType":"address"},{"name":"nodekey","type":"address","indexed":false,"internalType":"address"}],"anonymous":false},{"type":"event","name":"ComputePoolProviderBlacklisted","inputs":[{"name":"poolId","type":"uint256","indexed":true,"internalType":"uint256"},{"name":"provider","type":"address","indexed":true,"internalType":"address"}],"anonymous":false},{"type":"event","name":"ComputePoolStarted","inputs":[{"name":"poolId","type":"uint256","indexed":true,"internalType":"uint256"},{"name":"timestamp","type":"uint256","indexed":false,"internalType":"uint256"}],"anonymous":false},{"type":"event","name":"ComputePoolURIUpdated","inputs":[{"name":"poolId","type":"uint256","indexed":true,"internalType":"uint256"},{"name":"uri","type":"string","indexed":false,"internalType":"string"}],"anonymous":false},{"type":"event","name":"RoleAdminChanged","inputs":[{"name":"role","type":"bytes32","indexed":true,"internalType":"bytes32"},{"name":"previousAdminRole","type":"bytes32","indexed":true,"internalType":"bytes32"},{"name":"newAdminRole","type":"bytes32","indexed":true,"internalType":"bytes32"}],"anonymous":false},{"type":"event","name":"RoleGranted","inputs":[{"name":"role","type":"bytes32","indexed":true,"internalType":"bytes32"},{"name":"account","type":"address","indexed":true,"internalType":"address"},{"name":"sender","type":"address","indexed":true,"internalType":"address"}],"anonymous":false},{"type":"event","name":"RoleRevoked","inputs":[{"name":"role","type":"bytes32","indexed":true,"internalType":"bytes32"},{"name":"account","type":"address","indexed":true,"internalType":"address"},{"name":"sender","type":"address","indexed":true,"internalType":"address"}],"anonymous":false},{"type":"error","name":"AccessControlBadConfirmation","inputs":[]},{"type":"error","name":"AccessControlUnauthorizedAccount","inputs":[{"name":"account","type":"address","internalType":"address"},{"name":"neededRole","type":"bytes32","internalType":"bytes32"}]}],"bytecode":{"object":"0x6080346100ef57601f613ddf38819003918201601f19168301916001600160401b038311848410176100f3578084926080946040528339810103126100ef578051906001600160a01b03821682036100ef5760208101516001600160a01b03811692908390036100ef5760408201516001600160a01b03811692908390036100ef57606001516001600160a01b03811691908290036100ef57806100a56100ab92610107565b5061017d565b505f60025560018060a01b0319600654161760065560018060a01b0319600354161760035560018060a01b03196004541617600455604051613b6e90816102118239f35b5f80fd5b634e487b7160e01b5f52604160045260245ffd5b6001600160a01b0381165f9081525f516020613dbf5f395f51905f52602052604090205460ff16610178576001600160a01b03165f8181525f516020613dbf5f395f51905f5260205260408120805460ff191660011790553391905f516020613d7f5f395f51905f528180a4600190565b505f90565b6001600160a01b0381165f9081525f516020613d9f5f395f51905f52602052604090205460ff16610178576001600160a01b03165f8181525f516020613d9f5f395f51905f5260205260408120805460ff191660011790553391907f4224ac760a19a0bd83d3469bb1eb2770cf93bce486d0c94483102de5a5ae0df0905f516020613d7f5f395f51905f529080a460019056fe6080806040526004361015610012575f80fd5b5f3560e01c90816301ffc9a7146128ee575080630944a93d146128c6578063145cdaa3146127dd578063186909461461250e5780632296ce371461232d578063248a9ca3146122fb5780632f2ff15d146122be57806336568abe1461227a5780633f2a5540146122525780633ff98fb614611da85780634979dfcc14611d4457806361830870146119bd5780637e15eddd1461146f57806380ef4ec81461140957806391d14854146113c1578063a217fddf146113a7578063a353ee2a146103e8578063a3860f9d1461119e578063ac4afa38146110a7578063bb61f14214610db2578063c273d27114610d36578063c28084cc14610cfc578063d547741f14610cb8578063d6fa395f14610499578063d89aac4a1461047c578063dfdfe9c814610454578063e4e3466a1461042c578063e7967476146103e8578063e8e3ebcc146102da5763ec9f078f14610166575f80fd5b346102d65760203660031901126102d657600435805f5260016020526101918160405f205414612ced565b805f52600160205260ff600b60405f2001541660038110156102c25761027e575f818152600160205260409020600301546001600160a01b0316330361022857805f52600160205242600660405f200155805f526001602052600b60405f2001600160ff198254161790557f91339b637c84d3a0338a3e683d04b08978c781abdfc8382f9db0e165300c12c56020604051428152a2005b60405162461bcd60e51b815260206004820152602860248201527f436f6d70757465506f6f6c3a206f6e6c792063726561746f722063616e207374604482015267185c9d081c1bdbdb60c21b6064820152608490fd5b606460405162461bcd60e51b815260206004820152602060248201527f436f6d70757465506f6f6c3a20706f6f6c206973206e6f742070656e64696e676044820152fd5b634e487b7160e01b5f52602160045260245ffd5b5f80fd5b346102d65760203660031901126102d657600435805f5260016020526103058160405f205414612ced565b805f52600160205260ff600b60405f2001541660038110156102c257600161032d9114612f4f565b5f818152600160205260409020600301546001600160a01b03163303610394575f818152600160205260408120426007820155600b01805460ff191660021790557f213d4233ecf85f4eb8c58c0662cd1c41b52be98dcf6041be58b73048f0ab211d9080a2005b60405162461bcd60e51b815260206004820152602660248201527f436f6d70757465506f6f6c3a206f6e6c792063726561746f722063616e20656e60448201526519081c1bdbdb60d21b6064820152608490fd5b346102d65760403660031901126102d657610401612941565b6004355f52600860205260405f209060018060a01b03165f52602052602060405f2054604051908152f35b346102d6575f3660031901126102d6576006546040516001600160a01b039091168152602090f35b346102d6575f3660031901126102d6576003546040516001600160a01b039091168152602090f35b346102d6575f3660031901126102d6576020600254604051908152f35b346102d65760803660031901126102d6576004356104b5612941565b906044356001600160401b0381116102d6576104d5903690600401612a6d565b6064356001600160401b0381116102d6576104f4903690600401612b2c565b916001600160a01b0384163381148015610caf575b15610c5957815f5260016020526105258260405f205414612ced565b815f52600160205260ff600b60405f2001541660038110156102c257600161054d9114612f4f565b815f52600b6020526105708160405f206001915f520160205260405f2054151590565b610c085760035460405163366e8cbf60e21b81526004810183905290602090829060249082906001600160a01b03165afa908115610984575f91610bce575b5015610b78575f5b8351811015610649575f838152600c602052604090206105f9906001600160a01b036105e38488612d38565b5116906001915f520160205260405f2054151590565b610605576001016105b7565b606460405162461bcd60e51b815260206004820152602060248201527f436f6d70757465506f6f6c3a206e6f646520697320626c61636b6c69737465646044820152fd5b50919392815f5260096020526106708360405f206001915f520160205260405f2054151590565b15610b5d575b5f5b8551811015610b1d576003546106d6906001600160a01b03908116905f906106a0858b612d38565b51604051639fb19c1f60e01b81526001600160a01b038b8116600483015292909116909116602482015292839081906044820190565b0381845afa918215610984575f92610af9575b508151610700906001600160a01b03168714612f04565b60a0820151610a985761075d906020906001600160a01b03610722868c612d38565b516040516319091a2b60e11b81526001600160a01b038c811660048301529290911690911660248201529283919082905f9082906044820190565b03925af1908115610984575f91610a5f575b5015610a0f575f8481526001602081905260409091209081015460049091015461082091906001600160a01b03166107a7858b612d38565b51916107b38688612d38565b519260405190602082019283528960408301526bffffffffffffffffffffffff199060601b166060820152605481526107ed607482612a35565b5190207f19457468657265756d205369676e6564204d6573736167653a0a3332000000005f52601c52603c5f2090613298565b156109ca575f848152600a60205260409020610850906001600160a01b03610848858b612d38565b51169061324b565b506001600160a01b036108638389612d38565b5116845f52600760205260405f209060018060a01b03165f5260205260405f2060405191610890836129fe565b42835260208301915f83528054600160401b8110156109b6576108b891600182018155612be8565b6109a357600160609363ffffffff9551835551910155015116835f526001602052600a60405f2001805491820180921161098f5755825f52600860205260405f20845f5260205260405f2061090d8154612ef6565b90556003546001600160a01b0390811691906109298289612d38565b5116823b156102d6575f9260648492604051958693849263024ad34360e21b84528b60048501526024840152600160448401525af191821561098457600192610974575b5001610678565b5f61097e91612a35565b8761096d565b6040513d5f823e3d90fd5b634e487b7160e01b5f52601160045260245ffd5b634e487b7160e01b5f525f60045260245ffd5b634e487b7160e01b5f52604160045260245ffd5b60405162461bcd60e51b815260206004820152601b60248201527f436f6d70757465506f6f6c3a20696e76616c696420696e7669746500000000006044820152606490fd5b60405162461bcd60e51b815260206004820152602260248201527f436f6d70757465506f6f6c3a206e6f6465206973206e6f742076616c69646174604482015261195960f21b6064820152608490fd5b90506020813d8211610a90575b81610a7960209383612a35565b810103126102d657610a8a90612db7565b8861076f565b3d9150610a6c565b60405162461bcd60e51b815260206004820152603360248201527f436f6d70757465506f6f6c3a206e6f64652063616e206f6e6c7920626520696e604482015272206f6e6520706f6f6c20617420612074696d6560681b6064820152608490fd5b610b169192503d805f833e610b0e8183612a35565b810190612dc4565b90886106e9565b50507fbcdd4a6f29bb81131471f3192fe48a218af901e1c9888b463659bb61fbeb3815610b58856040519182916020835260208301906129c2565b0390a3005b815f526009602052610b728360405f2061324b565b50610676565b60405162461bcd60e51b815260206004820152602860248201527f436f6d70757465506f6f6c3a2070726f7669646572206973206e6f74207768696044820152671d195b1a5cdd195960c21b6064820152608490fd5b90506020813d602011610c00575b81610be960209383612a35565b810103126102d657610bfa90612db7565b866105af565b3d9150610bdc565b60405162461bcd60e51b8152602060048201526024808201527f436f6d70757465506f6f6c3a2070726f766964657220697320626c61636b6c696044820152631cdd195960e21b6064820152608490fd5b60405162461bcd60e51b815260206004820152602860248201527f436f6d70757465506f6f6c3a206f6e6c792070726f76696465722063616e206a6044820152671bda5b881c1bdbdb60c21b6064820152608490fd5b50303314610509565b346102d65760403660031901126102d657610cfa600435610cd7612941565b90610cf5610cf0825f525f602052600160405f20015490565b61301b565b6130db565b005b346102d6575f3660031901126102d65760206040517f4224ac760a19a0bd83d3469bb1eb2770cf93bce486d0c94483102de5a5ae0df08152f35b346102d65760203660031901126102d6576004355f52600a60205260405f206040519081602082549182815201915f5260205f20905f5b818110610d9c57610d9885610d8481870382612a35565b6040519182916020835260208301906129c2565b0390f35b8254845260209093019260019283019201610d6d565b346102d657610dc036612988565b9190815f526001602052610dd98260405f205414612ced565b5f828152600160205260409020600301546001600160a01b0316330361104d57815f52600a60205260405f2092610e2760018060a01b03821680956001915f520160205260405f2054151590565b610e79575b5060207f4d58172de21b64818707d32c7f11f934725f75eb5d4e3be9d5397c801328f80391835f52600c8252610e658560405f2061324b565b506040519485526001600160a01b031693a3005b600354604051639fb19c1f60e01b81526001600160a01b03848116600483015283811660248301529092915f9184916044918391165afa918215610984575f9261102d575b508151610ee39190610edd906001600160a01b03868116911614612f04565b84612f9b565b825f52600a602052610ef88460405f20613170565b5063ffffffff606082015116835f526001602052610f1e600a60405f2001918254612e8e565b90555f83815260086020908152604080832084516001600160a01b0316845290915290208054610f4d90612e9b565b905560035481516001600160a01b03918216939116833b156102d6575f9360648592604051968793849263024ad34360e21b845260048401528a60248401528160448401525af1918215610984577f4d58172de21b64818707d32c7f11f934725f75eb5d4e3be9d5397c801328f8039360209361101d575b505f85815260088452604080822083516001600160a01b03168352855290205415610ff3575b509150610e2c565b5f85815260098452604090209051611016916001600160a01b0390911690613170565b5085610feb565b5f61102791612a35565b86610fc5565b610ee3919250611046903d805f833e610b0e8183612a35565b9190610ebe565b60405162461bcd60e51b815260206004820152602c60248201527f436f6d70757465506f6f6c3a206f6e6c792063726561746f722063616e20626c60448201526b61636b6c697374206e6f646560a01b6064820152608490fd5b346102d65760203660031901126102d6576004355f52600160205260405f208054600182015491600281016110db90612c4d565b600382015460048301546005840154600685015460078601546001600160a01b0393841696949293909216919061111460088601612c4d565b93600160a01b6001900360098701541697600a87015496600b015460ff16976040519b8c9b8c5260208c015260408b0161018090526101808b0161115791612957565b9460608b015260808a015260a089015260c088015260e087015285810361010087015261118391612957565b926101208501526101408401526101608301610d989161297b565b346102d65760403660031901126102d6576004356024356001600160401b0381116102d6576111d1903690600401612bbb565b90825f5260016020526111e98360405f205414612ced565b5f838152600160205260409020600301546001600160a01b0316330361134c57825f526001602052600860405f20016001600160401b0383116109b65761123a836112348354612c15565b83612ea7565b5f601f84116001146112c4579160409161128c85807f3f78a06fc7106f9e466ac7b072858eb25f88ffecfe63addf4f751e57a9eae2b897965f916112b9575b508160011b915f199060031b1c19161790565b90555b82825193849260208452816020850152848401375f828201840152601f01601f19168101030190a2005b905084013589611279565b601f19841690825f5260205f20915f5b81811061133457509160409391867f3f78a06fc7106f9e466ac7b072858eb25f88ffecfe63addf4f751e57a9eae2b89796941061131b575b5050600184811b01905561128f565b8301355f19600387901b60f8161c19169055868061130c565b919260206001819286890135815501940192016112d4565b60405162461bcd60e51b815260206004820152602d60248201527f436f6d70757465506f6f6c3a206f6e6c792063726561746f722063616e20757060448201526c6461746520706f6f6c2055524960981b6064820152608490fd5b346102d6575f3660031901126102d65760206040515f8152f35b346102d65760403660031901126102d6576113da612941565b6004355f525f60205260405f209060018060a01b03165f52602052602060ff60405f2054166040519015158152f35b346102d65760603660031901126102d657611422612941565b604435906004355f52600760205260405f209060018060a01b03165f5260205260405f2080548210156102d65760409161145b91612be8565b506001815491015482519182526020820152f35b346102d65760803660031901126102d65760043561148b612941565b906044356001600160401b0381116102d6576114ab903690600401612bbb565b906064356001600160401b0381116102d6576114cb903690600401612bbb565b929060245f60018060a01b036004541660405192838092634a83e9cd60e11b82528a60048301525afa80156109845786915f916118dc575b50510361188c57600254936115306040519461151e86612a19565b86865260208601948886523691612af6565b91604085019283526060850197338952608086019060018060a01b0316815260a086019042825261157160c08801935f855260e08901955f87523691612af6565b9961010088019a8b526101208801955f87526101408901975f89526101608a019a5f8c525f52600160205260405f2099518a555160018a01556002890190518051906001600160401b0382116109b6576115d5826115cf8554612c15565b85612ea7565b602090601f83116001146118295761160492915f918361181e575b50508160011b915f199060031b1c19161790565b90555b516003880180546001600160a01b03199081166001600160a01b0393841617909155915160048901805490931691161790555160058601555160068501555160078401559451805190959060088401906001600160401b0381116109b657611679816116738454612c15565b84612ea7565b6020601f82116001146117b85790806116ab92600b98999a5f926117ad5750508160011b915f199060031b1c19161790565b90555b516009830180546001600160a01b0319166001600160a01b039290921691909117905551600a820155915191019060038110156102c25760ff8019835416911617905560018060a01b036003541660025490604051916106f690818401908482106001600160401b038311176109b65760609385936134438539308352602083015260408201520301905ff080156109845760018060a01b03166bffffffffffffffffffffffff60a01b600554161760055561176b600254612ef6565b90816002555f19820191821161098f57602091604051913390827f606bff4f66442daf75e3b94fa0fed071ffb7573d3c2565ab6e0338af0762d6395f80a48152f35b015190508a806115f0565b601f19821698835f52815f20995f5b818110611806575091600b98999a918460019594106117ee575b505050811b0190556116ae565b01515f1960f88460031b161c191690558980806117e1565b838301518c556001909b019a602093840193016117c7565b015190508f806115f0565b90601f19831691845f52815f20925f5b818110611874575090846001959493921061185c575b505050811b019055611607565b01515f1960f88460031b161c191690558e808061184f565b92936020600181928786015181550195019301611839565b60405162461bcd60e51b815260206004820152602260248201527f436f6d70757465506f6f6c3a20646f6d61696e20646f6573206e6f74206578696044820152611cdd60f21b6064820152608490fd5b9150503d805f833e6118ee8183612a35565b8101906020818303126102d6578051906001600160401b0382116102d657019060a0828203126102d6576040519160a083018381106001600160401b038211176109b6576040528051835260208101516001600160401b0381116102d65782611958918301612d60565b602084015260408101516001600160a01b03811681036102d657604084015260608101516001600160401b0381116102d657608092611998918301612d60565b60608401520151906001600160a01b03821682036102d6578691608082015288611503565b346102d65760803660031901126102d6576024356004356044356001600160401b0381116102d6576119f3903690600401612a6d565b6064356001600160401b0381116102d657611a12903690600401612b2c565b91805f5260016020528060405f205403611cef57835f5260016020528360405f205403611c9c57835f52600160205260ff600b60405f2001541660038110156102c257600103611c4b5781516040516373cb3a3b60e11b81526004810183905233602482015290602082604481305afa918215610984575f92611c17575b5003611b9957303b156102d65760405190631ffcc7db60e11b825260048201523360248201525f60448201525f8160648183305af1801561098457611b89575b505b303b156102d6579190611b0a60405193849363d6fa395f60e01b855260048501523360248501526080604485015260848401906129c2565b600319838203016064840152815180825260208201916020808360051b8301019401925f915b838310611b5857865f818089038183305af1801561098457611b4e57005b5f610cfa91612a35565b919395509193602080611b77600193601f198682030187528951612957565b97019301930190928695949293611b30565b5f611b9391612a35565b83611ad0565b925f5b8251811015611c0f576001600160a01b03611bb78285612d38565b511690303b156102d65760405191631ffcc7db60e11b835286600484015233602484015260448301525f8260648183305af191821561098457600192611bff575b5001611b9c565b5f611c0991612a35565b86611bf8565b509250611ad2565b9091506020813d602011611c43575b81611c3360209383612a35565b810103126102d657519086611a90565b3d9150611c26565b60405162461bcd60e51b815260206004820152602360248201527f436f6d70757465506f6f6c3a206465737420706f6f6c206973206e6f7420726560448201526261647960e81b6064820152608490fd5b60405162461bcd60e51b815260206004820152602560248201527f436f6d70757465506f6f6c3a206465737420706f6f6c20646f6573206e6f7420604482015264195e1a5cdd60da1b6064820152608490fd5b60405162461bcd60e51b815260206004820152602760248201527f436f6d70757465506f6f6c3a20736f7572636520706f6f6c20646f6573206e6f6044820152661d08195e1a5cdd60ca1b6064820152608490fd5b346102d65760203660031901126102d6576004355f52600960205260405f206040519081602082549182815201915f5260205f20905f5b818110611d9257610d9885610d8481870382612a35565b8254845260209093019260019283019201611d7b565b346102d657611db636612988565b6001600160a01b038216903382148015612249575b156121f257835f526001602052611de78460405f205414612ced565b6001600160a01b0381169081612075575050825f52600a60205260405f2092604051808560208297549384815201905f5260205f20925f5b81811061205c575050611e3492500385612a35565b5f5b845181101561202457600354611e97905f906001600160a01b0390811690611e5e858a612d38565b51604051639fb19c1f60e01b81526001600160a01b038a8116600483015292909116909116602482015292839190829081906044820190565b03915afa908115610984575f9161200a575b5080516001600160a01b03168414611ec5575b50600101611e36565b5f838152600a6020526040902063ffffffff91606091611ef9906001600160a01b03611ef1878c612d38565b511690613170565b50611f176001600160a01b03611f0f868b612d38565b511686612f9b565b015116825f526001602052611f34600a60405f2001918254612e8e565b9055815f52600860205260405f20835f5260205260405f20611f568154612e9b565b90556003546001600160a01b039081169190611f728288612d38565b5116823b156102d6575f9260648492604051958693849263024ad34360e21b84528a600485015260248401528160448401525af191821561098457600192611ffa575b5083837f26d6fbdc6ba12646d85870f07976c5177fc1a947d332744bd2f2588d8a1243fa6020858060a01b03611feb868c612d38565b5116604051908152a390611ebc565b5f61200491612a35565b86611fb5565b61201e91503d805f833e610b0e8183612a35565b86611ea9565b50925090505b815f52600860205260405f20815f5260205260405f20541561204857005b610cfa915f52600960205260405f20613170565b8454835260019485019489945060209093019201611e1f565b600354604051639fb19c1f60e01b81526001600160a01b039586166004820152828616602482015293949293925f9184916044918391165afa918215610984575f926121d6575b5081516001600160a01b031684146120d7575b50505061202a565b845f52600a6020526120ec8360405f20613170565b156120cf5763ffffffff9161210360609287612f9b565b015116835f526001602052612120600a60405f2001918254612e8e565b9055825f52600860205260405f20825f5260205260405f206121428154612e9b565b90556003546001600160a01b031690813b156102d6575f809260646040518095819363024ad34360e21b83528860048401528660248401528160448401525af191821561098457602085927f26d6fbdc6ba12646d85870f07976c5177fc1a947d332744bd2f2588d8a1243fa9286956121c6575b50604051908152a38280806120cf565b5f6121d091612a35565b876121b6565b6121eb9192503d805f833e610b0e8183612a35565b90856120bc565b60405162461bcd60e51b815260206004820152602960248201527f436f6d70757465506f6f6c3a206f6e6c792070726f76696465722063616e206c60448201526819585d99481c1bdbdb60ba1b6064820152608490fd5b50303314611dcb565b346102d6575f3660031901126102d6576005546040516001600160a01b039091168152602090f35b346102d65760403660031901126102d657612293612941565b336001600160a01b038216036122af57610cfa906004356130db565b63334bd91960e11b5f5260045ffd5b346102d65760403660031901126102d657610cfa6004356122dd612941565b906122f6610cf0825f525f602052600160405f20015490565b613053565b346102d65760203660031901126102d65760206123256004355f525f602052600160405f20015490565b604051908152f35b346102d65760203660031901126102d6575f61016060405161234e81612a19565b828152826020820152606060408201528260608201528260808201528260a08201528260c08201528260e08201526060610100820152826101208201528261014082015201526004355f52600160205260405f206040516123ae81612a19565b81548152600182015491602082019283526123cb60028201612c4d565b6040830190815260038201546001600160a01b0390811660608501908152600484015490911660808501908152600584015460a08601908152600685015460c08701908152600786015460e08801908152929593929061242d60088601612c4d565b92610100890193845260018060a01b03600987015416976101208a0198895260ff600b600a890154986101408d01998a52015416976101608b019860038110156102c25789526040519b8c9b60208d525160208d01525160408c01525160608b0161018090526101a08b016124a191612957565b95516001600160a01b0390811660808c015290511660a08a01525160c08901525160e08801525161010087015251858203601f19016101208701526124e69190612957565b92516001600160a01b03166101408501525161016084015251610d989061018084019061297b565b346102d65760403660031901126102d65760043561252a612941565b815f5260016020526125418260405f205414612ced565b5f828152600160205260409020600301546001600160a01b0316330361277f575f8281526009602052604090206001600160a01b03821690612584908290613170565b50825f52600a60205260405f2092604051808560208297549384815201905f5260205f20925f5b8181106127665750506125c092500385612a35565b5f5b8451811015612729576003546125ea905f906001600160a01b0390811690611e5e858a612d38565b03915afa908115610984575f9161270f575b5080516001600160a01b03168414612618575b506001016125c2565b5f838152600a6020526040902063ffffffff91606091612644906001600160a01b03611ef1878c612d38565b5061265a6001600160a01b03611f0f868b612d38565b015116825f526001602052612677600a60405f2001918254612e8e565b9055815f52600860205260405f20835f5260205260405f206126998154612e9b565b90556003546001600160a01b0390811691906126b58288612d38565b5116823b156102d6575f9260648492604051958693849263024ad34360e21b84528a600485015260248401528160448401525af1918215610984576001926126ff575b509061260f565b5f61270991612a35565b866126f8565b61272391503d805f833e610b0e8183612a35565b866125fc565b50805f52600b60205261273f8260405f2061324b565b507fb727dcf46488f8537b19da6b2dbcd45113e28c262332d65b20f1d392a4db453d5f80a3005b84548352600194850194899450602090930192016125ab565b60405162461bcd60e51b815260206004820152603060248201527f436f6d70757465506f6f6c3a206f6e6c792063726561746f722063616e20626c60448201526f30b1b5b634b9ba10383937bb34b232b960811b6064820152608490fd5b346102d65760403660031901126102d6576127f6612941565b6004355f52600760205260405f209060018060a01b03165f5260205260405f2080549061282282612a56565b916128306040519384612a35565b8083526020830180925f5260205f205f915b838310612899578486604051918291602083019060208452518091526040830191905f5b818110612874575050500390f35b8251805185526020908101518186015286955060409094019390920191600101612866565b600260206001926040516128ac816129fe565b855481528486015483820152815201920192019190612842565b346102d6575f3660031901126102d6576004546040516001600160a01b039091168152602090f35b346102d65760203660031901126102d6576004359063ffffffff60e01b82168092036102d657602091637965db0b60e01b8114908115612930575b5015158152f35b6301ffc9a760e01b14905083612929565b602435906001600160a01b03821682036102d657565b805180835260209291819084018484015e5f828201840152601f01601f1916010190565b9060038210156102c25752565b60609060031901126102d657600435906024356001600160a01b03811681036102d657906044356001600160a01b03811681036102d65790565b90602080835192838152019201905f5b8181106129df5750505090565b82516001600160a01b03168452602093840193909201916001016129d2565b604081019081106001600160401b038211176109b657604052565b61018081019081106001600160401b038211176109b657604052565b90601f801991011681019081106001600160401b038211176109b657604052565b6001600160401b0381116109b65760051b60200190565b9080601f830112156102d657813590612a8582612a56565b92612a936040519485612a35565b82845260208085019360051b8201019182116102d657602001915b818310612abb5750505090565b82356001600160a01b03811681036102d657815260209283019201612aae565b6001600160401b0381116109b657601f01601f191660200190565b929192612b0282612adb565b91612b106040519384612a35565b8294818452818301116102d6578281602093845f960137010152565b81601f820112156102d657803590612b4382612a56565b92612b516040519485612a35565b82845260208085019360051b830101918183116102d65760208101935b838510612b7d57505050505090565b84356001600160401b0381116102d657820183603f820112156102d657602091612bb08583604086809601359101612af6565b815201940193612b6e565b9181601f840112156102d6578235916001600160401b0383116102d657602083818601950101116102d657565b8054821015612c01575f5260205f209060011b01905f90565b634e487b7160e01b5f52603260045260245ffd5b90600182811c92168015612c43575b6020831014612c2f57565b634e487b7160e01b5f52602260045260245ffd5b91607f1691612c24565b9060405191825f825492612c6084612c15565b8084529360018116908115612ccb5750600114612c87575b50612c8592500383612a35565b565b90505f9291925260205f20905f915b818310612caf575050906020612c85928201015f612c78565b6020919350806001915483858901015201910190918492612c96565b905060209250612c8594915060ff191682840152151560051b8201015f612c78565b15612cf457565b606460405162461bcd60e51b815260206004820152602060248201527f436f6d70757465506f6f6c3a20706f6f6c20646f6573206e6f742065786973746044820152fd5b8051821015612c015760209160051b010190565b51906001600160a01b03821682036102d657565b81601f820112156102d657805190612d7782612adb565b92612d856040519485612a35565b828452602083830101116102d657815f9260208093018386015e8301015290565b519063ffffffff821682036102d657565b519081151582036102d657565b6020818303126102d6578051906001600160401b0382116102d6570160e0818303126102d6576040519160e083018381106001600160401b038211176109b657604052612e1082612d4c565b8352612e1e60208301612d4c565b60208401526040820151916001600160401b0383116102d657612e4860c092612e86948301612d60565b6040850152612e5960608201612da6565b6060850152612e6a60808201612da6565b6080850152612e7b60a08201612db7565b60a085015201612db7565b60c082015290565b9190820391821161098f57565b801561098f575f190190565b601f8211612eb457505050565b5f5260205f20906020601f840160051c83019310612eec575b601f0160051c01905b818110612ee1575050565b5f8155600101612ed6565b9091508190612ecd565b5f19811461098f5760010190565b15612f0b57565b606460405162461bcd60e51b815260206004820152602060248201527f436f6d70757465506f6f6c3a206e6f646520646f6573206e6f742065786973746044820152fd5b15612f5657565b60405162461bcd60e51b815260206004820152601f60248201527f436f6d70757465506f6f6c3a20706f6f6c206973206e6f7420616374697665006044820152606490fd5b4291815f52600160205260ff600b60405f2001541660038110156102c257600214613003575b5f9182526007602090815260408084206001600160a01b03939093168452919052902080545f1981019190821161098f57600191612ffe91612be8565b500155565b9150805f526001602052600760405f20015491612fc1565b5f8181526020818152604080832033845290915290205460ff161561303d5750565b63e2517d3f60e01b5f523360045260245260445ffd5b5f818152602081815260408083206001600160a01b038616845290915290205460ff166130d5575f818152602081815260408083206001600160a01b0395909516808452949091528120805460ff19166001179055339291907f2f8788117e7eff1d82e926ec794901d17c78024a50270940304540a733656f0d9080a4600190565b50505f90565b5f818152602081815260408083206001600160a01b038616845290915290205460ff16156130d5575f818152602081815260408083206001600160a01b0395909516808452949091528120805460ff19169055339291907ff6391f5c32d9c69d2a47ea670b442974b53935d1edc7fd64eb21e047a839171b9080a4600190565b8054821015612c01575f5260205f2001905f90565b906001820191815f528260205260405f20548015155f14613243575f19810181811161098f5782545f1981019190821161098f578181036131f8575b505050805480156131e4575f1901906131c5828261315b565b8154905f199060031b1b19169055555f526020525f6040812055600190565b634e487b7160e01b5f52603160045260245ffd5b61322e613208613218938661315b565b90549060031b1c9283928661315b565b819391549060031b91821b915f19901b19161790565b90555f528360205260405f20555f80806131ac565b505050505f90565b5f8281526001820160205260409020546130d557805490600160401b8210156109b6578261328361321884600180960185558461315b565b90558054925f520160205260405f2055600190565b9190823b6132d357906132aa91613386565b5060048110156102c2571591826132c057505090565b6001600160a01b03918216911614919050565b915f9261330961331785946040519283916020830195630b135d3f60e11b87526024840152604060448401526064830190612957565b03601f198101835282612a35565b51915afa3d1561337f573d61332b81612adb565b906133396040519283612a35565b81523d5f602083013e5b81613371575b81613352575090565b90506020818051810103126102d65760200151630b135d3f60e11b1490565b905060208151101590613349565b6060613343565b81519190604183036133b6576133af9250602082015190606060408401519301515f1a906133c0565b9192909190565b50505f9160029190565b91907f7fffffffffffffffffffffffffffffff5d576e7357a4501ddfe92f46681b20a08411613437579160209360809260ff5f9560405194855216868401526040830152606082015282805260015afa15610984575f516001600160a01b0381161561342d57905f905f90565b505f906001905f90565b5050505f916003919056fe608034609b57601f6106f638819003918201601f19168301916001600160401b03831184841017609f57808492606094604052833981010312609b5780516001600160a01b0381169190829003609b5760208101516001600160a01b0381169190829003609b57604001519160018060a01b03195f5416175f5560018060a01b0319600154161760015560025560405161064290816100b48239f35b5f80fd5b634e487b7160e01b5f52604160045260245ffdfe6080806040526004361015610012575f80fd5b5f3560e01c908163013eba9214610533575080633e0dc34e146105165780637b0a47ee146104f9578063dfdfe9c8146104d1578063e4e3466a146104a9578063ee9f4b70146104825763f1e42ccd14610069575f80fd5b346102fe5760403660031901126102fe57610082610567565b6024356001600160a01b038116908190036102fe57600154604051639fb19c1f60e01b81526001600160a01b039384166004820181905260248201849052909390915f9185916044918391165afa928315610302575f93610352575b5082516001600160a01b0316330361030d5760018060a01b035f5416915f60025460446040518096819363145cdaa360e01b835260048301528560248301525afa928315610302575f93610214575b505f915f9484515f1981019081116101a05795935b61014c87876105d1565b5194602061015a89896105d1565b510151855f52600360205260405f2054105f146101b4575060208501948551905181039081116101a05781018091116101a05793519580156101a0575f19019593610142565b634e487b7160e01b5f52601160045260245ffd5b60606101da6101e4949363ffffffff93885f52600360205260405f2055600554906105f9565b92015116906105f9565b7f8c714497f80546fab5c937face14f08c9756d3467409ddee11c86ce235c08b22602060025492604051908152a4005b9092503d805f833e610226818361057d565b8101906020818303126102fe5780519067ffffffffffffffff82116102fe570181601f820112156102fe5780519067ffffffffffffffff82116102ea576040519261027760208460051b018561057d565b82845260208085019360061b830101918183116102fe57602001925b8284106102a55750505050915f61012d565b6040848303126102fe5760405190604082019082821067ffffffffffffffff8311176102ea576040926020928452865181528287015183820152815201930192610293565b634e487b7160e01b5f52604160045260245ffd5b5f80fd5b6040513d5f823e3d90fd5b60405162461bcd60e51b815260206004820152601f60248201527f4f6e6c792070726f76696465722063616e20636c61696d2072657761726473006044820152606490fd5b9092503d805f833e610364818361057d565b8101906020818303126102fe5780519067ffffffffffffffff82116102fe57019060e0828203126102fe576040519160e0830183811067ffffffffffffffff8211176102ea576040526103b68161059f565b83526103c46020820161059f565b6020840152604081015167ffffffffffffffff81116102fe5781019082601f830112156102fe5781519267ffffffffffffffff84116102ea5760405190610415601f8601601f19166020018361057d565b848252602085850101116102fe575f602085610476968260c097018386015e830101526040850152610449606082016105b3565b606085015261045a608082016105b3565b608085015261046b60a082016105c4565b60a0850152016105c4565b60c0820152915f6100de565b346102fe575f3660031901126102fe575f546040516001600160a01b039091168152602090f35b346102fe575f3660031901126102fe576004546040516001600160a01b039091168152602090f35b346102fe575f3660031901126102fe576001546040516001600160a01b039091168152602090f35b346102fe575f3660031901126102fe576020600554604051908152f35b346102fe575f3660031901126102fe576020600254604051908152f35b346102fe5760203660031901126102fe576020906001600160a01b03610557610567565b165f526003825260405f20548152f35b600435906001600160a01b03821682036102fe57565b90601f8019910116810190811067ffffffffffffffff8211176102ea57604052565b51906001600160a01b03821682036102fe57565b519063ffffffff821682036102fe57565b519081151582036102fe57565b80518210156105e55760209160051b010190565b634e487b7160e01b5f52603260045260245ffd5b818102929181159184041417156101a05756fea2646970667358221220875d16e3b17719957dee6caf8386613ed116b08f8c6b126118acade5433ff75564736f6c634300081c0033a26469706673582212208ec008dc5095780615dd7fe1a84a59d3a7677edc041ddc711f5daa08771956f764736f6c634300081c00332f8788117e7eff1d82e926ec794901d17c78024a50270940304540a733656f0def5349cc450c70e5391501ad4e436e6960249b57a7fb7058927cfe8c9906d866ad3228b676f7d3cd4284a5443f17f1962b36e491b30a40b2405849e597ba5fb5","linkReferences":{}},"methodIdentifiers":{"AIToken()":"e4e3466a","DEFAULT_ADMIN_ROLE()":"a217fddf","PRIME_ROLE()":"c28084cc","blacklistNode(uint256,address,address)":"bb61f142","blacklistProvider(uint256,address)":"18690946","changeComputePool(uint256,uint256,address[],bytes[])":"61830870","computeRegistry()":"dfdfe9c8","createComputePool(uint256,address,string,string)":"7e15eddd","domainRegistry()":"0944a93d","endComputePool(uint256)":"e8e3ebcc","getComputePool(uint256)":"2296ce37","getComputePoolNodes(uint256)":"c273d271","getComputePoolProviders(uint256)":"4979dfcc","getNodeWork(uint256,address)":"145cdaa3","getProviderActiveNodesInPool(uint256,address)":"e7967476","getRoleAdmin(bytes32)":"248a9ca3","grantRole(bytes32,address)":"2f2ff15d","hasRole(bytes32,address)":"91d14854","joinComputePool(uint256,address,address[],bytes[])":"d6fa395f","leaveComputePool(uint256,address,address)":"3ff98fb6","nodeWork(uint256,address,uint256)":"80ef4ec8","poolIdCounter()":"d89aac4a","pools(uint256)":"ac4afa38","providerActiveNodes(uint256,address)":"a353ee2a","renounceRole(bytes32,address)":"36568abe","revokeRole(bytes32,address)":"d547741f","rewardsDistributor()":"3f2a5540","startComputePool(uint256)":"ec9f078f","supportsInterface(bytes4)":"01ffc9a7","updateComputePoolURI(uint256,string)":"a3860f9d"},"id":48}