{"abi":[{"type":"constructor","inputs":[{"name":"_federator","type":"address","internalType":"address"},{"name":"_validator","type":"address","internalType":"address"},{"name":"_AIToken","type":"address","internalType":"contract IERC20"}],"stateMutability":"nonpayable"},{"type":"function","name":"AIToken","inputs":[],"outputs":[{"name":"","type":"address","internalType":"contract IERC20"}],"stateMutability":"view"},{"type":"function","name":"DEFAULT_ADMIN_ROLE","inputs":[],"outputs":[{"name":"","type":"bytes32","internalType":"bytes32"}],"stateMutability":"view"},{"type":"function","name":"FEDERATOR_ROLE","inputs":[],"outputs":[{"name":"","type":"bytes32","internalType":"bytes32"}],"stateMutability":"view"},{"type":"function","name":"VALIDATOR_ROLE","inputs":[],"outputs":[{"name":"","type":"bytes32","internalType":"bytes32"}],"stateMutability":"view"},{"type":"function","name":"addComputeNode","inputs":[{"name":"nodekey","type":"address","internalType":"address"},{"name":"specsURI","type":"string","internalType":"string"},{"name":"computeUnits","type":"uint256","internalType":"uint256"},{"name":"signature","type":"bytes","internalType":"bytes"}],"outputs":[],"stateMutability":"nonpayable"},{"type":"function","name":"blacklistProvider","inputs":[{"name":"provider","type":"address","internalType":"address"}],"outputs":[],"stateMutability":"nonpayable"},{"type":"function","name":"computePool","inputs":[],"outputs":[{"name":"","type":"address","internalType":"contract IComputePool"}],"stateMutability":"view"},{"type":"function","name":"computeRegistry","inputs":[],"outputs":[{"name":"","type":"address","internalType":"contract IComputeRegistry"}],"stateMutability":"view"},{"type":"function","name":"createDomain","inputs":[{"name":"domainName","type":"string","internalType":"string"},{"name":"validationLogic","type":"address","internalType":"contract IWorkValidation"},{"name":"domainURI","type":"string","internalType":"string"}],"outputs":[{"name":"","type":"uint256","internalType":"uint256"}],"stateMutability":"nonpayable"},{"type":"function","name":"deregisterProvider","inputs":[{"name":"provider","type":"address","internalType":"address"}],"outputs":[],"stateMutability":"nonpayable"},{"type":"function","name":"domainRegistry","inputs":[],"outputs":[{"name":"","type":"address","internalType":"contract IDomainRegistry"}],"stateMutability":"view"},{"type":"function","name":"getRoleAdmin","inputs":[{"name":"role","type":"bytes32","internalType":"bytes32"}],"outputs":[{"name":"","type":"bytes32","internalType":"bytes32"}],"stateMutability":"view"},{"type":"function","name":"grantRole","inputs":[{"name":"role","type":"bytes32","internalType":"bytes32"},{"name":"account","type":"address","internalType":"address"}],"outputs":[],"stateMutability":"nonpayable"},{"type":"function","name":"hasRole","inputs":[{"name":"role","type":"bytes32","internalType":"bytes32"},{"name":"account","type":"address","internalType":"address"}],"outputs":[{"name":"","type":"bool","internalType":"bool"}],"stateMutability":"view"},{"type":"function","name":"invalidateNode","inputs":[{"name":"provider","type":"address","internalType":"address"},{"name":"nodekey","type":"address","internalType":"address"}],"outputs":[],"stateMutability":"nonpayable"},{"type":"function","name":"registerProvider","inputs":[{"name":"stake","type":"uint256","internalType":"uint256"}],"outputs":[],"stateMutability":"nonpayable"},{"type":"function","name":"registerProviderWithPermit","inputs":[{"name":"stake","type":"uint256","internalType":"uint256"},{"name":"deadline","type":"uint256","internalType":"uint256"},{"name":"signature","type":"bytes","internalType":"bytes"}],"outputs":[],"stateMutability":"nonpayable"},{"type":"function","name":"removeComputeNode","inputs":[{"name":"provider","type":"address","internalType":"address"},{"name":"nodekey","type":"address","internalType":"address"}],"outputs":[],"stateMutability":"nonpayable"},{"type":"function","name":"renounceRole","inputs":[{"name":"role","type":"bytes32","internalType":"bytes32"},{"name":"callerConfirmation","type":"address","internalType":"address"}],"outputs":[],"stateMutability":"nonpayable"},{"type":"function","name":"revokeRole","inputs":[{"name":"role","type":"bytes32","internalType":"bytes32"},{"name":"account","type":"address","internalType":"address"}],"outputs":[],"stateMutability":"nonpayable"},{"type":"function","name":"setFederator","inputs":[{"name":"_federator","type":"address","internalType":"address"}],"outputs":[],"stateMutability":"nonpayable"},{"type":"function","name":"setModuleAddresses","inputs":[{"name":"_computeRegistry","type":"address","internalType":"address"},{"name":"_domainRegistry","type":"address","internalType":"address"},{"name":"_stakeManager","type":"address","internalType":"address"},{"name":"_computePool","type":"address","internalType":"address"}],"outputs":[],"stateMutability":"nonpayable"},{"type":"function","name":"setStakeMinimum","inputs":[{"name":"amount","type":"uint256","internalType":"uint256"}],"outputs":[],"stateMutability":"nonpayable"},{"type":"function","name":"setValidator","inputs":[{"name":"_validator","type":"address","internalType":"address"}],"outputs":[],"stateMutability":"nonpayable"},{"type":"function","name":"slash","inputs":[{"name":"provider","type":"address","internalType":"address"},{"name":"amount","type":"uint256","internalType":"uint256"},{"name":"reason","type":"bytes","internalType":"bytes"}],"outputs":[],"stateMutability":"nonpayable"},{"type":"function","name":"stakeManager","inputs":[],"outputs":[{"name":"","type":"address","internalType":"contract IStakeManager"}],"stateMutability":"view"},{"type":"function","name":"supportsInterface","inputs":[{"name":"interfaceId","type":"bytes4","internalType":"bytes4"}],"outputs":[{"name":"","type":"bool","internalType":"bool"}],"stateMutability":"view"},{"type":"function","name":"validateNode","inputs":[{"name":"provider","type":"address","internalType":"address"},{"name":"nodekey","type":"address","internalType":"address"}],"outputs":[],"stateMutability":"nonpayable"},{"type":"function","name":"whitelistProvider","inputs":[{"name":"provider","type":"address","internalType":"address"}],"outputs":[],"stateMutability":"nonpayable"},{"type":"event","name":"ComputeNodeAdded","inputs":[{"name":"provider","type":"address","indexed":false,"internalType":"address"},{"name":"nodekey","type":"address","indexed":false,"internalType":"address"},{"name":"specsURI","type":"string","indexed":false,"internalType":"string"}],"anonymous":false},{"type":"event","name":"ComputeNodeInvalidated","inputs":[{"name":"provider","type":"address","indexed":false,"internalType":"address"},{"name":"nodekey","type":"address","indexed":false,"internalType":"address"}],"anonymous":false},{"type":"event","name":"ComputeNodeRemoved","inputs":[{"name":"provider","type":"address","indexed":false,"internalType":"address"},{"name":"nodekey","type":"address","indexed":false,"internalType":"address"}],"anonymous":false},{"type":"event","name":"ComputeNodeValidated","inputs":[{"name":"provider","type":"address","indexed":false,"internalType":"address"},{"name":"nodekey","type":"address","indexed":false,"internalType":"address"}],"anonymous":false},{"type":"event","name":"ProviderBlacklisted","inputs":[{"name":"provider","type":"address","indexed":false,"internalType":"address"}],"anonymous":false},{"type":"event","name":"ProviderDeregistered","inputs":[{"name":"provider","type":"address","indexed":false,"internalType":"address"}],"anonymous":false},{"type":"event","name":"ProviderRegistered","inputs":[{"name":"provider","type":"address","indexed":false,"internalType":"address"},{"name":"stake","type":"uint256","indexed":false,"internalType":"uint256"}],"anonymous":false},{"type":"event","name":"ProviderWhitelisted","inputs":[{"name":"provider","type":"address","indexed":false,"internalType":"address"}],"anonymous":false},{"type":"event","name":"RoleAdminChanged","inputs":[{"name":"role","type":"bytes32","indexed":true,"internalType":"bytes32"},{"name":"previousAdminRole","type":"bytes32","indexed":true,"internalType":"bytes32"},{"name":"newAdminRole","type":"bytes32","indexed":true,"internalType":"bytes32"}],"anonymous":false},{"type":"event","name":"RoleGranted","inputs":[{"name":"role","type":"bytes32","indexed":true,"internalType":"bytes32"},{"name":"account","type":"address","indexed":true,"internalType":"address"},{"name":"sender","type":"address","indexed":true,"internalType":"address"}],"anonymous":false},{"type":"event","name":"RoleRevoked","inputs":[{"name":"role","type":"bytes32","indexed":true,"internalType":"bytes32"},{"name":"account","type":"address","indexed":true,"internalType":"address"},{"name":"sender","type":"address","indexed":true,"internalType":"address"}],"anonymous":false},{"type":"error","name":"AccessControlBadConfirmation","inputs":[]},{"type":"error","name":"AccessControlUnauthorizedAccount","inputs":[{"name":"account","type":"address","internalType":"address"},{"name":"neededRole","type":"bytes32","internalType":"bytes32"}]}],"bytecode":{"object":"0x6080346100ab57601f61259838819003918201601f19168301916001600160401b038311848410176100af578084926060946040528339810103126100ab57610047816100c3565b6040610055602084016100c3565b9201516001600160a01b03811692908390036100ab576100816100879261007b336100d7565b5061014d565b506101e0565b50600580546001600160a01b0319169190911790556040516122a490816102748239f35b5f80fd5b634e487b7160e01b5f52604160045260245ffd5b51906001600160a01b03821682036100ab57565b6001600160a01b0381165f9081525f5160206125785f395f51905f52602052604090205460ff16610148576001600160a01b03165f8181525f5160206125785f395f51905f5260205260408120805460ff191660011790553391905f5160206125185f395f51905f528180a4600190565b505f90565b6001600160a01b0381165f9081525f5160206125385f395f51905f52602052604090205460ff16610148576001600160a01b03165f8181525f5160206125385f395f51905f5260205260408120805460ff191660011790553391907f257a11202a56a7d32cd465cc8894ee9eaa6cc12d9b7c22f7f4125f08d6ae3920905f5160206125185f395f51905f529080a4600190565b6001600160a01b0381165f9081525f5160206125585f395f51905f52602052604090205460ff16610148576001600160a01b03165f8181525f5160206125585f395f51905f5260205260408120805460ff191660011790553391907f21702c8af46127c7fa207f89d0b0a8441bb32959a0ac7df790e9ab1a25c98926905f5160206125185f395f51905f529080a460019056fe6080806040526004361015610012575f80fd5b5f905f3560e01c90816301ffc9a71461179c575080630944a93d146117745780630fc25913146116345780631327d3d81461157f578063248a9ca31461154d57806329c11eed146112e45780632f2ff15d146112a657806336568abe146112615780634f2c3aef146111a65780637542ff951461117d5780637a6b35d31461109e578063877e0f1214610fea57806391d1485414610fa1578063941d172e14610f425780639e12f82e14610d36578063a217fddf14610d1a578063ad2cc3c714610cf2578063bd2d032714610b98578063bd670879146108ff578063bede6950146107d1578063c3cfa73d146106f2578063c49baebe146106ca578063c5321ae914610616578063ceae67e214610362578063d535cce614610221578063d547741f146101da578063dfdfe9c8146101b1578063e4e3466a146101885763ee9f4b701461015d575f80fd5b346101855780600319360112610185576004546040516001600160a01b039091168152602090f35b80fd5b50346101855780600319360112610185576005546040516001600160a01b039091168152602090f35b50346101855780600319360112610185576001546040516001600160a01b039091168152602090f35b50346101855760403660031901126101855761021d6004356101fa611805565b90610218610213825f525f602052600160405f20015490565b611c8c565b611f99565b5080f35b5034610185576060366003190112610185576004356001600160401b03811161035e576102529036906004016118b1565b6024356001600160a01b0381169392919084900361035a576044356001600160401b03811161035657602092846102db936102946102f79436906004016118b1565b949061029e611bfa565b60018060a01b03600254169560018060a01b0360045416916040519b8c998a988997634ee42e3d60e11b8952608060048a01526084890191611bda565b9360248701526044860152600319858403016064860152611bda565b03925af190811561034a5790610313575b602090604051908152f35b506020813d602011610342575b8161032d6020938361181b565b8101031261033e5760209051610308565b5f80fd5b3d9150610320565b604051903d90823e3d90fd5b8380fd5b8280fd5b5080fd5b50346101855760203660031901126101855760035460405163085a6f7960e01b81526004803592602091839182906001600160a01b03165afa80156105655783906105e2575b6103b59150821015611b42565b600154604051632210724360e11b8152336004820152906020908290602490829087906001600160a01b03165af180156105655783906105a7575b6103fa9150611b8e565b6005546040516323b872dd60e01b8152336004820152306024820152604481018390529060209082906001600160a01b0316818681606481015b03925af1801561056557610570575b5060055460035460405163095ea7b360e01b81526001600160a01b0391821660048201526024810184905291602091839160449183918891165af180156105655761052e575b5060035482906001600160a01b0316803b1561035e576040516356e4bb9760e11b8152336004820152602481018490529082908290604490829084905af180156105235761050e575b5060408051338152602081018490527f90c9734131c1e4fb36cde2d71e6feb93fb258f71be8a85411c173d25e1516e8091819081015b0390a180f35b816105189161181b565b61035e57815f6104d2565b6040513d84823e3d90fd5b6020813d60201161055d575b816105476020938361181b565b8101031261035a5761055890611919565b610489565b3d915061053a565b6040513d85823e3d90fd5b6020813d60201161059f575b816105896020938361181b565b8101031261035a5761059a90611919565b610443565b3d915061057c565b506020813d6020116105da575b816105c16020938361181b565b8101031261035a576105d56103fa91611919565b6103f0565b3d91506105b4565b506020813d60201161060e575b816105fc6020938361181b565b8101031261033e576103b590516103a8565b3d91506105ef565b5034610185576020366003190112610185576106806106336117ef565b61063b611bfa565b5f51602061224f5f395f51905f525f9081526020527f453801b85a2eb41e1e77caf4d61370d327e1fee91eed150a40d59c377746ae565461067b90611c8c565b611d5c565b505f51602061224f5f395f51905f525f9081526020527f453801b85a2eb41e1e77caf4d61370d327e1fee91eed150a40d59c377746ae56546106c190611c8c565b61021d33611f08565b503461018557806003193601126101855760206040515f5160206121ef5f395f51905f528152f35b50346101855760403660031901126101855761070c6117ef565b610714611805565b61071c611c43565b60015483906001600160a01b0316803b1561035e576040516305340af560e01b81526001600160a01b03858116600483015284166024820152604481018390529082908290606490829084905af18015610523576107bc575b5050604080516001600160a01b0393841681529190921660208201527f47ad3cd5d8da7454602d9acd24234a0baa4f0c480bc5456929a7557ba0ea9a869181908101610508565b816107c69161181b565b61035a57825f610775565b5034610185576080366003190112610185576107eb6117ef565b906107f4611805565b6044356001600160a01b0381169081900361035a576064356001600160a01b03811691908290036103565783805260208481526040808620335f908152925290205460ff16156108e757839460018060a01b031692836001600160601b0360a01b600154161760015560018060a01b03166001600160601b0360a01b60025416176002556001600160601b0360a01b6003541617600355806001600160601b0360a01b6004541617600455813b156108e357829160248392604051948593849263f3f910c560e01b845260048401525af18015610523576108d25750f35b816108dc9161181b565b6101855780f35b5050fd5b63e2517d3f60e01b8452336004526024849052604484fd5b5034610185576080366003190112610185576109196117ef565b6024356001600160401b03811161035a576109389036906004016118b1565b90916064356001600160401b038111610b945761095990369060040161186b565b6001546040516355f21eb760e01b81523360048201526001600160a01b0390911691908681602481865afa908115610b89578791610b67575b5051336001600160a01b0390911603610b2257610a169060405193602085013360601b815260018060a01b038216956001600160601b03198360601b166034820152602881526109e360488261181b565b5190207f19457468657265756d205369676e6564204d6573736167653a0a3332000000008952601c52603c882090612019565b15610ae957602060405180926386da3be160e01b8252336004830152846024830152604435604483015260806064830152818881610a58608482018a8c611bda565b03925af18015610ade57610aac575b506105087f5e11ee300bfe586d1a1f2dbc58c99f4096cabd64186300b9437e27d690e0fe6e936040519384933385526020850152606060408501526060840191611bda565b6020813d602011610ad6575b81610ac56020938361181b565b8101031261033e5750610508610a67565b3d9150610ab8565b6040513d87823e3d90fd5b60405162461bcd60e51b8152602060048201526011602482015270496e76616c6964207369676e617475726560781b6044820152606490fd5b60405162461bcd60e51b815260206004820152601760248201527f50726f7669646572206e6f7420726567697374657265640000000000000000006044820152606490fd5b610b8391503d8089833e610b7b818361181b565b81019061194b565b5f610992565b6040513d89823e3d90fd5b8480fd5b50346101855760603660031901126101855780610bb36117ef565b6044356001600160401b0381116108e357610c2b91610bd860209236906004016118b1565b610be3929192611c43565b60035460405163bd2d032760e01b81526001600160a01b0393841660048201526024803590820152606060448201529586949190931692849288928492916064840191611bda565b03925af1908115610523578291610cbb575b5060055460405163a9059cbb60e01b81523360048201526024810192909252909160209183916001600160a01b0390911690829081604481015b03925af1801561052357610c89575080f35b6020813d602011610cb3575b81610ca26020938361181b565b8101031261035e5761021d90611919565b3d9150610c95565b9150506020813d602011610cea575b81610cd76020938361181b565b8101031261033e57518190610c77610c3d565b3d9150610cca565b503461018557806003193601126101855760206040515f51602061224f5f395f51905f528152f35b5034610185578060031936011261018557602090604051908152f35b503461018557606036600319011261018557600435816044356001600160401b03811161035e57610d6b90369060040161186b565b60035460405163085a6f7960e01b815290602090829060049082906001600160a01b03165afa908115610565578391610f0a575b50610dac90841015611b42565b600154604051632210724360e11b8152336004820152906020908290602490829087906001600160a01b03165af18015610565578390610ecf575b610df19150611b8e565b60608180518101031261035e576020810151606060408301519201519060ff8216809203610356576005546001600160a01b0316803b15610b945784928360e492604051968795869463d505accf60e01b86523360048701523060248701528b60448701526024356064870152608486015260a485015260c48401525af1801561052357610eba575b50506005546040516323b872dd60e01b8152336004820152306024820152604481018390529060209082906001600160a01b031681868160648101610434565b81610ec49161181b565b61035e57815f610e7a565b506020813d602011610f02575b81610ee96020938361181b565b8101031261035a57610efd610df191611919565b610de7565b3d9150610edc565b9250506020823d602011610f3a575b81610f266020938361181b565b8101031261033e57610dac84925190610d9f565b3d9150610f19565b503461018557602036600319011261018557610f5c611bfa565b60035481906001600160a01b0316803b15610f9e57818091602460405180948193634a0e8b9760e11b835260043560048401525af18015610523576108d25750f35b50fd5b5034610185576040366003190112610185576040610fbd611805565b91600435815280602052209060018060a01b03165f52602052602060ff60405f2054166040519015158152f35b5034610185576020366003190112610185576110046117ef565b61100c611c43565b6001546001600160a01b0316908290823b1561035e5781809160446040518094819363031090a160e21b835260018060a01b0316978860048401528160248401525af1801561052357611089575b507f75cc0c39959b93cfb9c185a893db66a82721241056d77aaa748148e83a53533c602083604051908152a180f35b816110939161181b565b61035e57815f61105a565b5034610185576040366003190112610185576110b86117ef565b6110c0611805565b6110c8611c43565b60015483906001600160a01b0316803b1561035e576040516305340af560e01b81526001600160a01b03858116600483015284166024820152600160448201529082908290606490829084905af1801561052357611168575b5050604080516001600160a01b0393841681529190921660208201527fdc621fb7e1421cda4f4a099edf476474d22b1a40d93638e0621385dedab6f33b9181908101610508565b816111729161181b565b61035a57825f611121565b50346101855780600319360112610185576003546040516001600160a01b039091168152602090f35b5034610185576020366003190112610185576111c06117ef565b6111c8611c43565b6001546001600160a01b0316908290823b1561035e5760405163031090a160e21b81526001600160a01b0390911660048201819052600160248301529282908290604490829084905af180156105235761124c575b507f329351c57e04823d76f0e141efccd5278bd9d07db94f06e83603b7046da6aebb602083604051908152a180f35b816112569161181b565b61035e57815f61121d565b50346101855760403660031901126101855761127b611805565b336001600160a01b038216036112975761021d90600435611f99565b63334bd91960e11b8252600482fd5b50346101855760403660031901126101855761021d6004356112c6611805565b906112df610213825f525f602052600160405f20015490565b611def565b503461033e57602036600319011261033e576112fe6117ef565b335f9081525f51602061222f5f395f51905f52602052604090205460ff16801561153b575b61132c906118de565b6001546040516355f21eb760e01b81526001600160a01b0383811660048301819052939216905f81602481855afa9081156114685763ffffffff916040915f91611521575b500151166114dc5760205f9160246040518094819363212b0cfb60e21b83528860048401525af18015611468576114a5575b506003546040516303d3b32360e51b8152600481018490526001600160a01b039091169190602081602481865afa908115611468575f91611473575b50823b1561033e57604051630615339760e51b81526001600160a01b039290921660048301526024820152905f908290604490829084905af1801561146857611452575b5060207ff04091b4a187e321a42001e46961e45b6a75b203fc6fb766b7e05505f6080abb91604051908152a180f35b61145f9192505f9061181b565b5f906020611423565b6040513d5f823e3d90fd5b90506020813d60201161149d575b8161148e6020938361181b565b8101031261033e57515f6113df565b3d9150611481565b6020813d6020116114d4575b816114be6020938361181b565b8101031261033e576114cf90611919565b6113a3565b3d91506114b1565b60405162461bcd60e51b815260206004820152601960248201527f50726f76696465722068617320616374697665206e6f646573000000000000006044820152606490fd5b61153591503d805f833e610b7b818361181b565b5f611371565b50336001600160a01b03821614611323565b3461033e57602036600319011261033e5760206115776004355f525f602052600160405f20015490565b604051908152f35b3461033e57602036600319011261033e576115e861159b6117ef565b6115a3611bfa565b5f5160206121ef5f395f51905f525f9081526020527f5111aeae4aa79889928e72f88b5872109754de9d419ea9a4e3df5fba21d4d470546115e390611c8c565b611cc4565b505f5160206121ef5f395f51905f525f9081526020527f5111aeae4aa79889928e72f88b5872109754de9d419ea9a4e3df5fba21d4d4705461162990611c8c565b61163233611e77565b005b3461033e57604036600319011261033e5761164d6117ef565b611655611805565b335f9081525f51602061222f5f395f51905f52602052604090205460ff168015611762575b611683906118de565b600154604051630fc2591360e01b81526001600160a01b0384811660048301528381166024830152909391602091859160449183915f91165af1801561146857611709575b604080516001600160a01b0392831681529290911660208301527fce765bb571cfc246f72be6700fceede6634f195c94f8a983c94e8fec1e8af601925090a1005b6020833d60201161175a575b816117226020938361181b565b8101031261033e576117547fce765bb571cfc246f72be6700fceede6634f195c94f8a983c94e8fec1e8af60193611919565b506116c8565b3d9150611715565b50336001600160a01b0383161461167a565b3461033e575f36600319011261033e576002546040516001600160a01b039091168152602090f35b3461033e57602036600319011261033e576004359063ffffffff60e01b821680920361033e57602091637965db0b60e01b81149081156117de575b5015158152f35b6301ffc9a760e01b149050836117d7565b600435906001600160a01b038216820361033e57565b602435906001600160a01b038216820361033e57565b90601f801991011681019081106001600160401b0382111761183c57604052565b634e487b7160e01b5f52604160045260245ffd5b6001600160401b03811161183c57601f01601f191660200190565b81601f8201121561033e5780359061188282611850565b92611890604051948561181b565b8284526020838301011161033e57815f926020809301838601378301015290565b9181601f8401121561033e578235916001600160401b03831161033e576020838186019501011161033e57565b156118e557565b60405162461bcd60e51b815260206004820152600c60248201526b155b985d5d1a1bdc9a5e995960a21b6044820152606490fd5b5190811515820361033e57565b51906001600160a01b038216820361033e57565b519063ffffffff8216820361033e57565b60208183031261033e578051906001600160401b03821161033e57019060808282031261033e5760405191608083018381106001600160401b0382111761183c5760405261199881611926565b83526119a660208201611919565b60208401526119b76040820161193a565b60408401526060810151906001600160401b03821161033e57019080601f8301121561033e578151916001600160401b03831161183c578260051b9160405193611a04602085018661181b565b84526020808501938301019181831161033e5760208101935b838510611a31575050505050606082015290565b84516001600160401b03811161033e5782019060e0828503601f19011261033e576040519060e082018281106001600160401b0382111761183c57604052611a7b60208401611926565b8252611a8960408401611926565b602083015260608301516001600160401b03811161033e576020908401019185601f8401121561033e578251611abe81611850565b93611acc604051958661181b565b818552876020838301011161033e5760209586955f8785611b32968260e097018386015e830101526040850152611b056080820161193a565b6060850152611b1660a0820161193a565b6080850152611b2760c08201611919565b60a085015201611919565b60c0820152815201940193611a1d565b15611b4957565b60405162461bcd60e51b815260206004820152601d60248201527f5374616b6520616d6f756e742069732062656c6f77206d696e696d756d0000006044820152606490fd5b15611b9557565b60405162461bcd60e51b815260206004820152601c60248201527f50726f766964657220726567697374726174696f6e206661696c6564000000006044820152606490fd5b908060209392818452848401375f828201840152601f01601f1916010190565b335f9081525f51602061220f5f395f51905f52602052604090205460ff1615611c1f57565b63e2517d3f60e01b5f52336004525f51602061224f5f395f51905f5260245260445ffd5b335f9081525f51602061222f5f395f51905f52602052604090205460ff1615611c6857565b63e2517d3f60e01b5f52336004525f5160206121ef5f395f51905f5260245260445ffd5b5f8181526020818152604080832033845290915290205460ff1615611cae5750565b63e2517d3f60e01b5f523360045260245260445ffd5b6001600160a01b0381165f9081525f51602061222f5f395f51905f52602052604090205460ff16611d57576001600160a01b03165f8181525f51602061222f5f395f51905f5260205260408120805460ff191660011790553391905f5160206121ef5f395f51905f52907f2f8788117e7eff1d82e926ec794901d17c78024a50270940304540a733656f0d9080a4600190565b505f90565b6001600160a01b0381165f9081525f51602061220f5f395f51905f52602052604090205460ff16611d57576001600160a01b03165f8181525f51602061220f5f395f51905f5260205260408120805460ff191660011790553391905f51602061224f5f395f51905f52907f2f8788117e7eff1d82e926ec794901d17c78024a50270940304540a733656f0d9080a4600190565b5f818152602081815260408083206001600160a01b038616845290915290205460ff16611e71575f818152602081815260408083206001600160a01b0395909516808452949091528120805460ff19166001179055339291907f2f8788117e7eff1d82e926ec794901d17c78024a50270940304540a733656f0d9080a4600190565b50505f90565b6001600160a01b0381165f9081525f51602061222f5f395f51905f52602052604090205460ff1615611d57576001600160a01b03165f8181525f51602061222f5f395f51905f5260205260408120805460ff191690553391905f5160206121ef5f395f51905f52907ff6391f5c32d9c69d2a47ea670b442974b53935d1edc7fd64eb21e047a839171b9080a4600190565b6001600160a01b0381165f9081525f51602061220f5f395f51905f52602052604090205460ff1615611d57576001600160a01b03165f8181525f51602061220f5f395f51905f5260205260408120805460ff191690553391905f51602061224f5f395f51905f52907ff6391f5c32d9c69d2a47ea670b442974b53935d1edc7fd64eb21e047a839171b9080a4600190565b5f818152602081815260408083206001600160a01b038616845290915290205460ff1615611e71575f818152602081815260408083206001600160a01b0395909516808452949091528120805460ff19169055339291907ff6391f5c32d9c69d2a47ea670b442974b53935d1edc7fd64eb21e047a839171b9080a4600190565b9190823b612068579061202b91612132565b5060048110156120545715918261204157505090565b6001600160a01b03918216911614919050565b634e487b7160e01b5f52602160045260245ffd5b915f9260206120c36084869560405193849181830196630b135d3f60e11b88526024840152604060448401528051918291826064860152018484015e87838284010152601f801991011681010301601f19810183528261181b565b51915afa3d1561212b573d6120d781611850565b906120e5604051928361181b565b81523d5f602083013e5b8161211d575b816120fe575090565b905060208180518101031261033e5760200151630b135d3f60e11b1490565b9050602081511015906120f5565b60606120ef565b81519190604183036121625761215b9250602082015190606060408401519301515f1a9061216c565b9192909190565b50505f9160029190565b91907f7fffffffffffffffffffffffffffffff5d576e7357a4501ddfe92f46681b20a084116121e3579160209360809260ff5f9560405194855216868401526040830152606082015282805260015afa15611468575f516001600160a01b038116156121d957905f905f90565b505f906001905f90565b5050505f916003919056fe21702c8af46127c7fa207f89d0b0a8441bb32959a0ac7df790e9ab1a25c98926453801b85a2eb41e1e77caf4d61370d327e1fee91eed150a40d59c377746ae555111aeae4aa79889928e72f88b5872109754de9d419ea9a4e3df5fba21d4d46f257a11202a56a7d32cd465cc8894ee9eaa6cc12d9b7c22f7f4125f08d6ae3920a26469706673582212208c73e9c4a700b73386dda651df83e289862af5a95e6076b05c93c63db3fcb74164736f6c634300081c00332f8788117e7eff1d82e926ec794901d17c78024a50270940304540a733656f0d453801b85a2eb41e1e77caf4d61370d327e1fee91eed150a40d59c377746ae555111aeae4aa79889928e72f88b5872109754de9d419ea9a4e3df5fba21d4d46fad3228b676f7d3cd4284a5443f17f1962b36e491b30a40b2405849e597ba5fb5","linkReferences":{}},"methodIdentifiers":{"AIToken()":"e4e3466a","DEFAULT_ADMIN_ROLE()":"a217fddf","FEDERATOR_ROLE()":"ad2cc3c7","VALIDATOR_ROLE()":"c49baebe","addComputeNode(address,string,uint256,bytes)":"bd670879","blacklistProvider(address)":"877e0f12","computePool()":"ee9f4b70","computeRegistry()":"dfdfe9c8","createDomain(string,address,string)":"d535cce6","deregisterProvider(address)":"29c11eed","domainRegistry()":"0944a93d","getRoleAdmin(bytes32)":"248a9ca3","grantRole(bytes32,address)":"2f2ff15d","hasRole(bytes32,address)":"91d14854","invalidateNode(address,address)":"c3cfa73d","registerProvider(uint256)":"ceae67e2","registerProviderWithPermit(uint256,uint256,bytes)":"9e12f82e","removeComputeNode(address,address)":"0fc25913","renounceRole(bytes32,address)":"36568abe","revokeRole(bytes32,address)":"d547741f","setFederator(address)":"c5321ae9","setModuleAddresses(address,address,address,address)":"bede6950","setStakeMinimum(uint256)":"941d172e","setValidator(address)":"1327d3d8","slash(address,uint256,bytes)":"bd2d0327","stakeManager()":"7542ff95","supportsInterface(bytes4)":"01ffc9a7","validateNode(address,address)":"7a6b35d3","whitelistProvider(address)":"4f2c3aef"},"id":51}