{"abi":[{"type":"constructor","inputs":[{"name":"primeAdmin","type":"address","internalType":"address"}],"stateMutability":"nonpayable"},{"type":"function","name":"COMPUTE_POOL_ROLE","inputs":[],"outputs":[{"name":"","type":"bytes32","internalType":"bytes32"}],"stateMutability":"view"},{"type":"function","name":"DEFAULT_ADMIN_ROLE","inputs":[],"outputs":[{"name":"","type":"bytes32","internalType":"bytes32"}],"stateMutability":"view"},{"type":"function","name":"PRIME_ROLE","inputs":[],"outputs":[{"name":"","type":"bytes32","internalType":"bytes32"}],"stateMutability":"view"},{"type":"function","name":"addComputeNode","inputs":[{"name":"provider","type":"address","internalType":"address"},{"name":"subkey","type":"address","internalType":"address"},{"name":"computeUnits","type":"uint256","internalType":"uint256"},{"name":"specsURI","type":"string","internalType":"string"}],"outputs":[{"name":"","type":"uint256","internalType":"uint256"}],"stateMutability":"nonpayable"},{"type":"function","name":"deregister","inputs":[{"name":"provider","type":"address","internalType":"address"}],"outputs":[{"name":"","type":"bool","internalType":"bool"}],"stateMutability":"nonpayable"},{"type":"function","name":"getNode","inputs":[{"name":"provider","type":"address","internalType":"address"},{"name":"subkey","type":"address","internalType":"address"}],"outputs":[{"name":"","type":"tuple","internalType":"struct IComputeRegistry.ComputeNode","components":[{"name":"provider","type":"address","internalType":"address"},{"name":"subkey","type":"address","internalType":"address"},{"name":"specsURI","type":"string","internalType":"string"},{"name":"computeUnits","type":"uint32","internalType":"uint32"},{"name":"benchmarkScore","type":"uint32","internalType":"uint32"},{"name":"isActive","type":"bool","internalType":"bool"},{"name":"isValidated","type":"bool","internalType":"bool"}]}],"stateMutability":"view"},{"type":"function","name":"getNodeProvider","inputs":[{"name":"subkey","type":"address","internalType":"address"}],"outputs":[{"name":"","type":"address","internalType":"address"}],"stateMutability":"view"},{"type":"function","name":"getNodeValidationStatus","inputs":[{"name":"provider","type":"address","internalType":"address"},{"name":"subkey","type":"address","internalType":"address"}],"outputs":[{"name":"","type":"bool","internalType":"bool"}],"stateMutability":"view"},{"type":"function","name":"getNodes","inputs":[{"name":"provider","type":"address","internalType":"address"},{"name":"page","type":"uint256","internalType":"uint256"},{"name":"limit","type":"uint256","internalType":"uint256"}],"outputs":[{"name":"","type":"tuple[]","internalType":"struct IComputeRegistry.ComputeNode[]","components":[{"name":"provider","type":"address","internalType":"address"},{"name":"subkey","type":"address","internalType":"address"},{"name":"specsURI","type":"string","internalType":"string"},{"name":"computeUnits","type":"uint32","internalType":"uint32"},{"name":"benchmarkScore","type":"uint32","internalType":"uint32"},{"name":"isActive","type":"bool","internalType":"bool"},{"name":"isValidated","type":"bool","internalType":"bool"}]}],"stateMutability":"view"},{"type":"function","name":"getProvider","inputs":[{"name":"provider","type":"address","internalType":"address"}],"outputs":[{"name":"","type":"tuple","internalType":"struct IComputeRegistry.ComputeProvider","components":[{"name":"providerAddress","type":"address","internalType":"address"},{"name":"isWhitelisted","type":"bool","internalType":"bool"},{"name":"activeNodes","type":"uint32","internalType":"uint32"},{"name":"nodes","type":"tuple[]","internalType":"struct IComputeRegistry.ComputeNode[]","components":[{"name":"provider","type":"address","internalType":"address"},{"name":"subkey","type":"address","internalType":"address"},{"name":"specsURI","type":"string","internalType":"string"},{"name":"computeUnits","type":"uint32","internalType":"uint32"},{"name":"benchmarkScore","type":"uint32","internalType":"uint32"},{"name":"isActive","type":"bool","internalType":"bool"},{"name":"isValidated","type":"bool","internalType":"bool"}]}]}],"stateMutability":"view"},{"type":"function","name":"getRoleAdmin","inputs":[{"name":"role","type":"bytes32","internalType":"bytes32"}],"outputs":[{"name":"","type":"bytes32","internalType":"bytes32"}],"stateMutability":"view"},{"type":"function","name":"getWhitelistStatus","inputs":[{"name":"provider","type":"address","internalType":"address"}],"outputs":[{"name":"","type":"bool","internalType":"bool"}],"stateMutability":"view"},{"type":"function","name":"grantRole","inputs":[{"name":"role","type":"bytes32","internalType":"bytes32"},{"name":"account","type":"address","internalType":"address"}],"outputs":[],"stateMutability":"nonpayable"},{"type":"function","name":"hasRole","inputs":[{"name":"role","type":"bytes32","internalType":"bytes32"},{"name":"account","type":"address","internalType":"address"}],"outputs":[{"name":"","type":"bool","internalType":"bool"}],"stateMutability":"view"},{"type":"function","name":"nodeProviderMap","inputs":[{"name":"","type":"address","internalType":"address"}],"outputs":[{"name":"","type":"address","internalType":"address"}],"stateMutability":"view"},{"type":"function","name":"providers","inputs":[{"name":"","type":"address","internalType":"address"}],"outputs":[{"name":"providerAddress","type":"address","internalType":"address"},{"name":"isWhitelisted","type":"bool","internalType":"bool"},{"name":"activeNodes","type":"uint32","internalType":"uint32"}],"stateMutability":"view"},{"type":"function","name":"register","inputs":[{"name":"provider","type":"address","internalType":"address"}],"outputs":[{"name":"","type":"bool","internalType":"bool"}],"stateMutability":"nonpayable"},{"type":"function","name":"removeComputeNode","inputs":[{"name":"provider","type":"address","internalType":"address"},{"name":"subkey","type":"address","internalType":"address"}],"outputs":[{"name":"","type":"bool","internalType":"bool"}],"stateMutability":"nonpayable"},{"type":"function","name":"renounceRole","inputs":[{"name":"role","type":"bytes32","internalType":"bytes32"},{"name":"callerConfirmation","type":"address","internalType":"address"}],"outputs":[],"stateMutability":"nonpayable"},{"type":"function","name":"revokeRole","inputs":[{"name":"role","type":"bytes32","internalType":"bytes32"},{"name":"account","type":"address","internalType":"address"}],"outputs":[],"stateMutability":"nonpayable"},{"type":"function","name":"setComputePool","inputs":[{"name":"computePool","type":"address","internalType":"address"}],"outputs":[],"stateMutability":"nonpayable"},{"type":"function","name":"setNodeValidationStatus","inputs":[{"name":"provider","type":"address","internalType":"address"},{"name":"subkey","type":"address","internalType":"address"},{"name":"status","type":"bool","internalType":"bool"}],"outputs":[],"stateMutability":"nonpayable"},{"type":"function","name":"setWhitelistStatus","inputs":[{"name":"provider","type":"address","internalType":"address"},{"name":"status","type":"bool","internalType":"bool"}],"outputs":[],"stateMutability":"nonpayable"},{"type":"function","name":"supportsInterface","inputs":[{"name":"interfaceId","type":"bytes4","internalType":"bytes4"}],"outputs":[{"name":"","type":"bool","internalType":"bool"}],"stateMutability":"view"},{"type":"function","name":"updateNodeBenchmark","inputs":[{"name":"provider","type":"address","internalType":"address"},{"name":"subkey","type":"address","internalType":"address"},{"name":"benchmarkScore","type":"uint256","internalType":"uint256"}],"outputs":[],"stateMutability":"nonpayable"},{"type":"function","name":"updateNodeStatus","inputs":[{"name":"provider","type":"address","internalType":"address"},{"name":"subkey","type":"address","internalType":"address"},{"name":"isActive","type":"bool","internalType":"bool"}],"outputs":[],"stateMutability":"nonpayable"},{"type":"function","name":"updateNodeURI","inputs":[{"name":"provider","type":"address","internalType":"address"},{"name":"subkey","type":"address","internalType":"address"},{"name":"specsURI","type":"string","internalType":"string"}],"outputs":[],"stateMutability":"nonpayable"},{"type":"event","name":"RoleAdminChanged","inputs":[{"name":"role","type":"bytes32","indexed":true,"internalType":"bytes32"},{"name":"previousAdminRole","type":"bytes32","indexed":true,"internalType":"bytes32"},{"name":"newAdminRole","type":"bytes32","indexed":true,"internalType":"bytes32"}],"anonymous":false},{"type":"event","name":"RoleGranted","inputs":[{"name":"role","type":"bytes32","indexed":true,"internalType":"bytes32"},{"name":"account","type":"address","indexed":true,"internalType":"address"},{"name":"sender","type":"address","indexed":true,"internalType":"address"}],"anonymous":false},{"type":"event","name":"RoleRevoked","inputs":[{"name":"role","type":"bytes32","indexed":true,"internalType":"bytes32"},{"name":"account","type":"address","indexed":true,"internalType":"address"},{"name":"sender","type":"address","indexed":true,"internalType":"address"}],"anonymous":false},{"type":"error","name":"AccessControlBadConfirmation","inputs":[]},{"type":"error","name":"AccessControlUnauthorizedAccount","inputs":[{"name":"account","type":"address","internalType":"address"},{"name":"neededRole","type":"bytes32","internalType":"bytes32"}]},{"type":"error","name":"EnumerableMapNonexistentKey","inputs":[{"name":"key","type":"bytes32","internalType":"bytes32"}]}],"bytecode":{"object":"0x60803461007257601f61200938819003918201601f19168301916001600160401b038311848410176100765780849260209460405283398101031261007257516001600160a01b0381168103610072578061005c6100629261008a565b50610100565b50604051611e1590816101948239f35b5f80fd5b634e487b7160e01b5f52604160045260245ffd5b6001600160a01b0381165f9081525f516020611fe95f395f51905f52602052604090205460ff166100fb576001600160a01b03165f8181525f516020611fe95f395f51905f5260205260408120805460ff191660011790553391905f516020611fa95f395f51905f528180a4600190565b505f90565b6001600160a01b0381165f9081525f516020611fc95f395f51905f52602052604090205460ff166100fb576001600160a01b03165f8181525f516020611fc95f395f51905f5260205260408120805460ff191660011790553391907f4224ac760a19a0bd83d3469bb1eb2770cf93bce486d0c94483102de5a5ae0df0905f516020611fa95f395f51905f529080a460019056fe6080806040526004361015610012575f80fd5b5f3560e01c90816301ffc9a714610d3f5750806305340af514610ce75780630787bc2714610c8a578063092b4d0c14610b105780630c42428414610aae5780630fc2591314610a7a578063248a9ca314610a485780632f2ff15d14610a0b57806332123456146109ab57806336568abe146109675780634420e4861461093c5780634f807fb61461041357806355f21eb71461081057806384ac33ec146107db57806386da3be1146105bd57806391d1485414610575578063921bda2a146104e65780639fb19c1f1461046d578063a217fddf14610453578063ba02f5c714610413578063bd5fe64d146103bd578063c28084cc14610383578063d547741f14610341578063d9ba32fc14610301578063dd843930146102c7578063f07a4df0146101745763f3f910c514610145575f80fd5b346101705760203660031901126101705761016e610161610d92565b6101696119f5565b611a9c565b005b5f80fd5b346101705760603660031901126101705761018d610d92565b610195610da8565b60443567ffffffffffffffff8111610170576101f26101ba6002923690600401610e56565b9390946101c56119f5565b6001600160a01b039081165f90815260016020819052604090912001916101ec9116611c75565b90610e84565b50019067ffffffffffffffff81116102b357610218816102128454610eb1565b84611071565b5f601f821160011461025557819061024693945f9261024a575b50508160011b915f199060031b1c19161790565b9055005b013590508480610232565b601f19821693835f5260205f20915f5b86811061029b5750836001959610610282575b505050811b019055005b01355f19600384901b60f8161c19169055838080610278565b90926020600181928686013581550194019101610265565b634e487b7160e01b5f52604160045260245ffd5b34610170575f3660031901126101705760206040517f342e4f2b2e9bb4c366ea2ef31c54acb10912b2d2d00818affca3c0fbc851fa778152f35b34610170576020366003190112610170576001600160a01b03610322610d92565b165f526001602052602060ff60405f205460a01c166040519015158152f35b346101705760403660031901126101705761016e600435610360610da8565b9061037e610379825f525f602052600160405f20015490565b611a64565b611bf5565b34610170575f3660031901126101705760206040517f4224ac760a19a0bd83d3469bb1eb2770cf93bce486d0c94483102de5a5ae0df08152f35b346101705760603660031901126101705761016e6103ed6103dc610d92565b6103e4610da8565b906101c56119f5565b50600301805467ffffffff00000000191660443560201b67ffffffff0000000016179055565b34610170576020366003190112610170576001600160a01b03610434610d92565b165f526002602052602060018060a01b0360405f205416604051908152f35b34610170575f3660031901126101705760206040515f8152f35b34610170576040366003190112610170576104e26104ce6104c861048f610d92565b610497610da8565b906104a06114eb565b506001600160a01b039081165f90815260016020819052604090912001916101ec9116611c75565b50610f43565b604051918291602083526020830190610dcd565b0390f35b346101705760603660031901126101705761050f610502610d92565b60443590602435906118af565b6040518091602082016020835281518091526040830190602060408260051b8601019301915f905b82821061054657505050500390f35b919360019193955060206105658192603f198a82030186528851610dcd565b9601920192018594939192610537565b346101705760403660031901126101705761058e610da8565b6004355f525f60205260405f209060018060a01b03165f52602052602060ff60405f2054166040519015158152f35b34610170576080366003190112610170576105d6610d92565b6105de610da8565b60643567ffffffffffffffff8111610170576105fe903690600401610e56565b90916106086119f5565b6001600160a01b039081165f818152600260205260409020549094911661075d576001600160a01b03165f81815260016020526040902090929061064a6114eb565b9284845263ffffffff60443516606085015267ffffffffffffffff81116102b35760405190610683601f8201601f191660200183610f21565b8082523681850111610170576020815f92600196838601378301015260408401525f60808401525f60a084015284602084015201908154600160401b8110156102b3578060016106d69201845583610e84565b91909161074a576106e691611522565b545f1981019190821161073657826020935f52600584528260405f205561070c81611cce565b505f526002835260405f20906bffffffffffffffffffffffff60a01b825416179055604051908152f35b634e487b7160e01b5f52601160045260245ffd5b634e487b7160e01b5f525f60045260245ffd5b60405162461bcd60e51b815260206004820152604a60248201527f436f6d7075746552656769737472793a206e6f646520616c726561647920657860448201527f69737473206f72207265676973746572656420746f206120646966666572656e6064820152693a10383937bb34b232b960b11b608482015260a490fd5b346101705760203660031901126101705760206108066107f9610d92565b6108016119f5565b61181a565b6040519015158152f35b3461017057602036600319011261017057610829610d92565b60608060405161083881610ee9565b5f81525f60208201525f6040820152015260018060a01b03165f52600160205260405f206040519061086982610ee9565b80549160018060a01b03831681526108a26001602083019360ff8660a01c161515855263ffffffff604085019660a81c168652016117c4565b6060820190815263ffffffff6040519485946020865260a086019460018060a01b0390511660208701525115156040860152511660608401525190608080840152815180915260c0830190602060c08260051b8601019301915f905b82821061090d57505050500390f35b9193600191939550602061092c819260bf198a82030186528851610dcd565b96019201920185949391926108fe565b3461017057602036600319011261017057602061080661095a610d92565b6109626119f5565b61169e565b3461017057604036600319011261017057610980610da8565b336001600160a01b0382160361099c5761016e90600435611bf5565b63334bd91960e11b5f5260045ffd5b3461017057604036600319011261017057602060ff60036109fa6109cd610d92565b6109d5610da8565b6001600160a01b039182165f9081526001808852604090912001916101ec9116611c75565b50015460481c166040519015158152f35b346101705760403660031901126101705761016e600435610a2a610da8565b90610a43610379825f525f602052600160405f20015490565b611b6d565b34610170576020366003190112610170576020610a726004355f525f602052600160405f20015490565b604051908152f35b34610170576040366003190112610170576020610806610a98610d92565b610aa0610da8565b90610aa96119f5565b6111fb565b3461017057604036600319011261017057610ac7610d92565b6024359081151580920361017057610add6119f5565b6001600160a01b03165f908152600160205260409020805460ff60a01b191660a09290921b60ff60a01b16919091179055005b3461017057606036600319011261017057610b29610d92565b610b31610da8565b90610b3a610dbe565b335f9081527fae52f17ba2bfdc3dc69b9e78fdbe5bd3e82f362c4b1f64e64dd536097d7ae0c9602052604090205490919060ff1615610c5357816003610ba6610bc49360018060a01b031695865f5260016020526101ec600160405f20019160018060a01b0316611c75565b50019060ff60401b825491151560401b169060ff60401b1916179055565b15610c11575f52600160205260405f2063ffffffff815460a81c169063ffffffff821461073657805463ffffffff60a81b191660019290920160a81b63ffffffff60a81b16919091179055005b5f52600160205260405f2063ffffffff815460a81c1690811561073657805463ffffffff60a81b19165f1990920160a81b63ffffffff60a81b16919091179055005b63e2517d3f60e01b5f52336004527f342e4f2b2e9bb4c366ea2ef31c54acb10912b2d2d00818affca3c0fbc851fa7760245260445ffd5b34610170576020366003190112610170576001600160a01b03610cab610d92565b165f526001602052606060405f205463ffffffff6040519160018060a01b038116835260ff8160a01c161515602084015260a81c166040820152f35b346101705760603660031901126101705761016e610d03610d92565b6003610d21610d10610da8565b610d18610dbe565b936101c56119f5565b50019060ff60481b825491151560481b169060ff60481b1916179055565b34610170576020366003190112610170576004359063ffffffff60e01b821680920361017057602091637965db0b60e01b8114908115610d81575b5015158152f35b6301ffc9a760e01b14905083610d7a565b600435906001600160a01b038216820361017057565b602435906001600160a01b038216820361017057565b60443590811515820361017057565b90602060c06101009360018060a01b03815116845260018060a01b03838201511683850152604081015160e0604086015280519384918260e0880152018686015e5f85848601015263ffffffff606082015116606085015263ffffffff608082015116608085015260a0810151151560a08501520151151560c0830152601f8019910116010190565b9181601f840112156101705782359167ffffffffffffffff8311610170576020838186019501011161017057565b8054821015610e9d575f5260205f209060021b01905f90565b634e487b7160e01b5f52603260045260245ffd5b90600182811c92168015610edf575b6020831014610ecb57565b634e487b7160e01b5f52602260045260245ffd5b91607f1691610ec0565b6080810190811067ffffffffffffffff8211176102b357604052565b60e0810190811067ffffffffffffffff8211176102b357604052565b90601f8019910116810190811067ffffffffffffffff8211176102b357604052565b90604051610f5081610f05565b82546001600160a01b0390811682526001840154166020820152604051600284018054929485939092915f9190610f8682610eb1565b80855291600181169081156110295750600114610fee575b505060c09282610fb460ff946003940382610f21565b6040860152015463ffffffff8116606085015263ffffffff8160201c166080850152818160401c16151560a085015260481c161515910152565b5f908152602081209092505b81831061100f57505081016020018282610f9e565b600181602092949394548385880101520191019190610ffa565b60ff191660208087019190915292151560051b85019092019250849150839050610f9e565b9190820391821161073657565b818110611066575050565b5f815560010161105b565b9190601f811161108057505050565b6110aa925f5260205f20906020601f840160051c830193106110ac575b601f0160051c019061105b565b565b909150819061109d565b91909182811461118b576110ca8354610eb1565b67ffffffffffffffff81116102b3576110e7816102128454610eb1565b5f93601f82116001146111255761111692939482915f9261111a5750508160011b915f199060031b1c19161790565b9055565b015490505f80610232565b601f198216905f5260205f2094835f5260205f20915f5b8181106111735750958360019596971061115b575b505050811b019055565b01545f1960f88460031b161c191690555f8080611151565b9192600180602092868b01548155019401920161113c565b509050565b60035f91828155826001820155600281016111ab8154610eb1565b90816111b8575b50500155565b81601f8693116001146111cf5750555b5f806111b2565b818352602083206111eb91601f0160051c81019060010161105b565b80825281602081209155556111c8565b60018060a01b03165f52600160205260405f209060018060a01b031690600161122383611c75565b9101906112336104c88284610e84565b60208101516001600160a01b03168490036114cb5760a0015161146d5781545f198101908111610736576112679083610e84565b50906112738184610e84565b61074a57826112b3938203611389575b505061128f8184610e84565b50600101546001600160a01b03165f81815260056020526040902091909155611cce565b5080548015611375575f1901906112ca8282610e84565b61074a576003815f809355826001820155600281016112e98154610eb1565b9081611332575b5050015555805f5260056020525f604081205561130c81611d34565b505f52600260205260405f206bffffffffffffffffffffffff60a01b8154169055600190565b81601f8693116001146113495750555b5f806112f0565b8183526020832061136591601f0160051c81019060010161105b565b8082528160208120915555611342565b634e487b7160e01b5f52603160045260245ffd5b805482546001600160a01b039182166001600160a01b031991821617845560018084015490850180549190931691161790556114669160ff9060039081906113d760028087019083016110b6565b01920163ffffffff808254161663ffffffff1984541617835561142163ffffffff825460201c16849067ffffffff0000000082549160201b169067ffffffff000000001916179055565b8054835468ff00000000000000001916604091821c8416151590911b60ff60401b161783555460481c1660ff60481b825491151560481b169060ff60481b1916179055565b5f80611283565b60405162461bcd60e51b815260206004820152603060248201527f436f6d7075746552656769737472793a206e6f6465206d75737420626520696e60448201526f61637469766520746f2072656d6f766560801b6064820152608490fd5b505050505f90565b67ffffffffffffffff81116102b35760051b60200190565b604051906114f882610f05565b5f60c083828152826020820152606060408201528260608201528260808201528260a08201520152565b815181546001600160a01b039182166001600160a01b0319918216178355602084015160018401805491909316911617905560408201518051600283019167ffffffffffffffff82116102b3576115838261157d8554610eb1565b85611071565b602090601f831160011461163257926115bc836003946110aa98979460c0975f926116275750508160011b915f199060031b1c19161790565b90555b606084015191018054608085015160a0860151949095015193151560401b60ff60401b1667ffffffff0000000060209690961b9590951663ffffffff90931669ffffffffffffffffffff1990911617919091179290921790151560481b60ff60481b16179055565b015190505f80610232565b90601f19831691845f52815f20925f5b8181106116865750936110aa97969360c09693600193836003981061166f575b505050811b0190556115bf565b01515f1983881b60f8161c191690555f8080611662565b92936020600181928786015181550195019301611642565b6001600160a01b038181165f908152600160205260409020805490929116156116c75750505f90565b81546001600160c81b0319166001600160a01b0391909116178155604051906116f1602083610f21565b5f82525f805b8181106117ad575050600101815191600160401b83116102b357815483835580841061175a575b50602001905f5260205f205f915b83831061173c5750505050600190565b600460208261174e6001945186611522565b0192019201919061172c565b6001600160fe1b0381168103610736576001600160fe1b038416840361073657825f5260205f209060021b8101908460021b015b81811061179b575061171e565b806117a7600492611190565b0161178e565b6020906117b86114eb565b828287010152016116f7565b9081546117d0816114d3565b926117de6040519485610f21565b81845260208401905f5260205f205f915b8383106117fc5750505050565b6004602060019261180c85610f43565b8152019201920191906117ef565b6001600160a01b039081165f8181526001602052604090205490911661183f57505f90565b5f526001602052600160405f205f8155018054905f815581611863575b5050600190565b6001600160fe1b0382168203610736575f5260205f209060021b8101905b8181101561185c5780611895600492611190565b01611881565b8051821015610e9d5760209160051b010190565b90918215806119ed575b156118e25750905060018060a01b03165f5260016020526118df600160405f20016117c4565b90565b5f19830192831161073657808302928084048214901517156107365782019182811161073657829160018060a01b031692835f526001602052600160405f200154106119d5575b611933818361104e565b9261193d846114d3565b9361194b6040519586610f21565b80855261195a601f19916114d3565b015f5b8181106119be575050815b838110611976575050505090565b600190825f52816020526119b7611992828460405f2001610e84565b506119a66119a0878561104e565b91610f43565b6119b0828a61189b565b528761189b565b5001611968565b6020906119c96114eb565b8282890101520161195d565b9050815f526001602052600160405f20015490611929565b5080156118b9565b335f9081527fef5349cc450c70e5391501ad4e436e6960249b57a7fb7058927cfe8c9906d866602052604090205460ff1615611a2d57565b63e2517d3f60e01b5f52336004527f4224ac760a19a0bd83d3469bb1eb2770cf93bce486d0c94483102de5a5ae0df060245260445ffd5b5f8181526020818152604080832033845290915290205460ff1615611a865750565b63e2517d3f60e01b5f523360045260245260445ffd5b6001600160a01b0381165f9081527fae52f17ba2bfdc3dc69b9e78fdbe5bd3e82f362c4b1f64e64dd536097d7ae0c9602052604090205460ff16611b68576001600160a01b03165f8181527fae52f17ba2bfdc3dc69b9e78fdbe5bd3e82f362c4b1f64e64dd536097d7ae0c960205260408120805460ff191660011790553391907f342e4f2b2e9bb4c366ea2ef31c54acb10912b2d2d00818affca3c0fbc851fa77907f2f8788117e7eff1d82e926ec794901d17c78024a50270940304540a733656f0d9080a4600190565b505f90565b5f818152602081815260408083206001600160a01b038616845290915290205460ff16611bef575f818152602081815260408083206001600160a01b0395909516808452949091528120805460ff19166001179055339291907f2f8788117e7eff1d82e926ec794901d17c78024a50270940304540a733656f0d9080a4600190565b50505f90565b5f818152602081815260408083206001600160a01b038616845290915290205460ff1615611bef575f818152602081815260408083206001600160a01b0395909516808452949091528120805460ff19169055339291907ff6391f5c32d9c69d2a47ea670b442974b53935d1edc7fd64eb21e047a839171b9080a4600190565b805f52600560205260405f205490811580611ca5575b611c93575090565b63015ab34360e11b5f5260045260245ffd5b50805f52600460205260405f205415611c8b565b8054821015610e9d575f5260205f2001905f90565b805f52600460205260405f2054155f14611b6857600354600160401b8110156102b357611d1d611d078260018594016003556003611cb9565b819391549060031b91821b915f19901b19161790565b9055600354905f52600460205260405f2055600190565b5f818152600460205260409020548015611bef575f198101818111610736576003545f1981019190821161073657818103611da7575b5050506003548015611375575f1901611d84816003611cb9565b8154905f199060031b1b191690556003555f5260046020525f6040812055600190565b611dc9611db8611d07936003611cb9565b90549060031b1c9283926003611cb9565b90555f52600460205260405f20555f8080611d6a56fea2646970667358221220830551a6a48634759dfe4c194c26ae1710fde3d5f4113c9f022a87247f1ce2f564736f6c634300081c00332f8788117e7eff1d82e926ec794901d17c78024a50270940304540a733656f0def5349cc450c70e5391501ad4e436e6960249b57a7fb7058927cfe8c9906d866ad3228b676f7d3cd4284a5443f17f1962b36e491b30a40b2405849e597ba5fb5","linkReferences":{}},"methodIdentifiers":{"COMPUTE_POOL_ROLE()":"dd843930","DEFAULT_ADMIN_ROLE()":"a217fddf","PRIME_ROLE()":"c28084cc","addComputeNode(address,address,uint256,string)":"86da3be1","deregister(address)":"84ac33ec","getNode(address,address)":"9fb19c1f","getNodeProvider(address)":"ba02f5c7","getNodeValidationStatus(address,address)":"32123456","getNodes(address,uint256,uint256)":"921bda2a","getProvider(address)":"55f21eb7","getRoleAdmin(bytes32)":"248a9ca3","getWhitelistStatus(address)":"d9ba32fc","grantRole(bytes32,address)":"2f2ff15d","hasRole(bytes32,address)":"91d14854","nodeProviderMap(address)":"4f807fb6","providers(address)":"0787bc27","register(address)":"4420e486","removeComputeNode(address,address)":"0fc25913","renounceRole(bytes32,address)":"36568abe","revokeRole(bytes32,address)":"d547741f","setComputePool(address)":"f3f910c5","setNodeValidationStatus(address,address,bool)":"05340af5","setWhitelistStatus(address,bool)":"0c424284","supportsInterface(bytes4)":"01ffc9a7","updateNodeBenchmark(address,address,uint256)":"bd5fe64d","updateNodeStatus(address,address,bool)":"092b4d0c","updateNodeURI(address,address,string)":"f07a4df0"},"id":49}